AFGLOCATE,11/22/19 05:22:44,SND:8=FIX.4.2~9=0113~35=R~52=20191122-10:22:44~34=166~49=STERLING~56=VLCY~50=SMRT014~109=VSIN~131=173336504-27-11~146=1~55=ACB~38=400~10=167~
AFGLOCATE,11/22/19 06:29:55,SND:8=FIX.4.2~9=0113~35=R~52=20191122-11:29:55~34=327~49=STERLING~56=VLCY~50=SMRT034~109=VSIN~131=173336615-1-11~146=1~55=BZUN~38=100~10=243~
AFGLOCATE,11/22/19 06:29:58,SND:8=FIX.4.2~9=0147~35=D~52=20191122-11:29:58~34=328~49=STERLING~56=VLCY~50=SMRT034~109=VSIN~11=173336615-2-11~55=BZUN~54=1~38=100~60=20191122-11:29:58~21=1~40=1~59=4~10=034~
AFGLOCATE,11/22/19 06:29:59,RCV:8=FIX.4.2~9=234~35=8~34=321~49=VLCY~50=SMRT034~52=20191122-11:29:59.290~56=STERLING~6=0.016~11=173336615-2-11~14=100~17=2854374~20=0~31=0.016~32=100~37=2854374~38=100~39=2~40=1~44=0.016~54=1~55=BZUN~59=4~60=20191122-11:29:59.279~109=VSIN~150=2~151=0~10=143~
AFGLOCATE,11/22/19 06:32:48,SND:8=FIX.4.2~9=0113~35=R~52=20191122-11:32:48~34=335~49=STERLING~56=VLCY~50=SMRT034~109=VSIN~131=173336627-4-11~146=1~55=BZUN~38=400~10=247~
AFGLOCATE,11/22/19 06:32:53,SND:8=FIX.4.2~9=0147~35=D~52=20191122-11:32:53~34=337~49=STERLING~56=VLCY~50=SMRT034~109=VSIN~11=173336627-5-11~55=BZUN~54=1~38=400~60=20191122-11:32:53~21=1~40=1~59=4~10=021~
AFGLOCATE,11/22/19 06:32:53,RCV:8=FIX.4.2~9=234~35=8~34=328~49=VLCY~50=SMRT034~52=20191122-11:32:53.406~56=STERLING~6=0.016~11=173336627-5-11~14=400~17=2854390~20=0~31=0.016~32=400~37=2854390~38=400~39=2~40=1~44=0.016~54=1~55=BZUN~59=4~60=20191122-11:32:53.399~109=VSIN~150=2~151=0~10=139~
AFGLOCATE,11/22/19 07:01:08,SND:8=FIX.4.2~9=0115~35=R~52=20191122-12:01:08~34=415~49=STERLING~56=VLCY~50=SMRT030~109=VSIN~131=173336684-26-11~146=1~55=LVGO~38=2000~10=075~
AFGLOCATE,11/22/19 07:01:19,SND:8=FIX.4.2~9=0114~35=R~52=20191122-12:01:19~34=416~49=STERLING~56=VLCY~50=SMRT030~109=VSIN~131=173336685-27-11~146=1~55=LVGO~38=500~10=034~
AFGLOCATE,11/22/19 07:02:35,SND:8=FIX.4.2~9=0116~35=R~52=20191122-12:02:35~34=422~49=STERLING~56=VLCY~50=VSINKRIEG~109=VSIN~131=173336696-1-11~146=1~55=EYEG~38=3000~10=227~
AFGLOCATE,11/22/19 07:02:38,SND:8=FIX.4.2~9=0150~35=D~52=20191122-12:02:38~34=423~49=STERLING~56=VLCY~50=VSINKRIEG~109=VSIN~11=173336696-2-11~55=EYEG~54=1~38=3000~60=20191122-12:02:38~21=1~40=1~59=4~10=255~
AFGLOCATE,11/22/19 07:02:38,RCV:8=FIX.4.2~9=239~35=8~34=406~49=VLCY~50=VSINKRIEG~52=20191122-12:02:38.515~56=STERLING~6=0.031~11=173336696-2-11~14=3000~17=2854520~20=0~31=0.031~32=3000~37=2854520~38=3000~39=2~40=1~44=0.031~54=1~55=EYEG~59=4~60=20191122-12:02:38.485~109=VSIN~150=2~151=0~10=201~
AFGLOCATE,11/22/19 07:13:14,SND:8=FIX.4.2~9=0119~35=R~52=20191122-12:13:14~34=486~49=STERLING~56=VLCY~50=ANT15JT5006~109=VSIN~131=173337118-184-11~146=1~55=OVBC~38=100~10=031~
AFGLOCATE,11/22/19 07:13:22,SND:8=FIX.4.2~9=0153~35=D~52=20191122-12:13:22~34=489~49=STERLING~56=VLCY~50=ANT15JT5006~109=VSIN~11=173337118-185-11~55=OVBC~54=1~38=100~60=20191122-12:13:22~21=1~40=1~59=4~10=052~
AFGLOCATE,11/22/19 07:13:23,RCV:8=FIX.4.2~9=240~35=8~34=460~49=VLCY~50=ANT15JT5006~52=20191122-12:13:23.377~56=STERLING~6=0.037~11=173337118-185-11~14=100~17=2854645~20=0~31=0.037~32=100~37=2854645~38=100~39=2~40=1~44=0.037~54=1~55=OVBC~59=4~60=20191122-12:13:23.371~109=VSIN~150=2~151=0~10=167~
AFGLOCATE,11/22/19 07:13:37,SND:8=FIX.4.2~9=0113~35=R~52=20191122-12:13:37~34=493~49=STERLING~56=VLCY~50=SMRT012~109=VSIN~131=173337128-7-11~146=1~55=ACB~38=1000~10=170~
AFGLOCATE,11/22/19 07:17:22,SND:8=FIX.4.2~9=0114~35=R~52=20191122-12:17:22~34=535~49=STERLING~56=VLCY~50=HWJD5003~109=VSIN~131=32217251-13-19~146=1~55=VIVE~38=100~10=255~
AFGLOCATE,11/22/19 07:18:11,SND:8=FIX.4.2~9=0116~35=R~52=20191122-12:18:11~34=557~49=STERLING~56=VLCY~50=VSINKRIEG~109=VSIN~131=173337379-3-11~146=1~55=VIVE~38=3000~10=254~
AFGLOCATE,11/22/19 07:18:45,SND:8=FIX.4.2~9=0116~35=R~52=20191122-12:18:45~34=575~49=STERLING~56=VLCY~50=VSINKRIEG~109=VSIN~131=173337429-4-11~146=1~55=VIVE~38=3000~10=002~
AFGLOCATE,11/22/19 07:19:13,SND:8=FIX.4.2~9=0116~35=R~52=20191122-12:19:13~34=583~49=STERLING~56=VLCY~50=VSINKRIEG~109=VSIN~131=173337451-5-11~146=1~55=VIVE~38=3000~10=249~
AFGLOCATE,11/22/19 07:19:25,SND:8=FIX.4.2~9=0111~35=R~52=20191122-12:19:25~34=585~49=STERLING~56=VLCY~50=JTTFD~109=VSIN~131=32217254-6-19~146=1~55=VIVE~38=5000~10=150~
AFGLOCATE,11/22/19 07:20:16,SND:8=FIX.4.2~9=0116~35=R~52=20191122-12:20:16~34=597~49=STERLING~56=VLCY~50=VSINKRIEG~109=VSIN~131=173337501-6-11~146=1~55=VIVE~38=3000~10=246~
AFGLOCATE,11/22/19 07:20:35,SND:8=FIX.4.2~9=0116~35=R~52=20191122-12:20:35~34=605~49=STERLING~56=VLCY~50=VSINKRIEG~109=VSIN~131=173337511-8-11~146=1~55=VIVE~38=3000~10=240~
AFGLOCATE,11/22/19 07:20:50,SND:8=FIX.4.2~9=0149~35=D~52=20191122-12:20:50~34=609~49=STERLING~56=VLCY~50=VSINKRIEG~109=VSIN~11=173337511-9-11~55=VIVE~54=1~38=100~60=20191122-12:20:50~21=1~40=1~59=4~10=217~
AFGLOCATE,11/22/19 07:20:50,RCV:8=FIX.4.2~9=236~35=8~34=568~49=VLCY~50=VSINKRIEG~52=20191122-12:20:50.983~56=STERLING~6=0.204~11=173337511-9-11~14=100~17=2854757~20=0~31=0.204~32=100~37=2854757~38=100~39=2~40=1~44=0.204~54=1~55=VIVE~59=4~60=20191122-12:20:50.979~109=VSIN~150=2~151=0~10=102~
AFGLOCATE,11/22/19 07:20:59,SND:8=FIX.4.2~9=0116~35=R~52=20191122-12:20:59~34=611~49=STERLING~56=VLCY~50=VSINKRIEG~109=VSIN~131=173337528-10-11~146=1~55=VIVE~38=900~10=250~
AFGLOCATE,11/22/19 07:21:07,SND:8=FIX.4.2~9=0150~35=D~52=20191122-12:21:07~34=614~49=STERLING~56=VLCY~50=VSINKRIEG~109=VSIN~11=173337528-11-11~55=VIVE~54=1~38=900~60=20191122-12:21:07~21=1~40=1~59=4~10=012~
AFGLOCATE,11/22/19 07:21:07,RCV:8=FIX.4.2~9=237~35=8~34=572~49=VLCY~50=VSINKRIEG~52=20191122-12:21:07.543~56=STERLING~6=0.204~11=173337528-11-11~14=900~17=2854762~20=0~31=0.204~32=900~37=2854762~38=900~39=2~40=1~44=0.204~54=1~55=VIVE~59=4~60=20191122-12:21:07.538~109=VSIN~150=2~151=0~10=152~
AFGLOCATE,11/22/19 07:21:36,SND:8=FIX.4.2~9=0116~35=R~52=20191122-12:21:36~34=620~49=STERLING~56=VLCY~50=VSINKRIEG~109=VSIN~131=173337572-12-11~146=1~55=VIVE~38=500~10=243~
AFGLOCATE,11/22/19 07:22:35,SND:8=FIX.4.2~9=0116~35=R~52=20191122-12:22:35~34=635~49=STERLING~56=VLCY~50=VSINKRIEG~109=VSIN~131=173337620-13-11~146=1~55=VIVE~38=500~10=244~
AFGLOCATE,11/22/19 07:22:52,SND:8=FIX.4.2~9=0116~35=R~52=20191122-12:22:52~34=641~49=STERLING~56=VLCY~50=VSINKRIEG~109=VSIN~131=173337634-14-11~146=1~55=VIVE~38=500~10=246~
AFGLOCATE,11/22/19 07:23:36,SND:8=FIX.4.2~9=0116~35=R~52=20191122-12:23:36~34=646~49=STERLING~56=VLCY~50=VSINKRIEG~109=VSIN~131=173337664-15-11~146=1~55=VIVE~38=500~10=002~
AFGLOCATE,11/22/19 07:24:11,SND:8=FIX.4.2~9=0116~35=R~52=20191122-12:24:11~34=650~49=STERLING~56=VLCY~50=VSINKRIEG~109=VSIN~131=173337707-16-11~146=1~55=VIVE~38=500~10=246~
AFGLOCATE,11/22/19 07:24:32,SND:8=FIX.4.2~9=0116~35=R~52=20191122-12:24:32~34=662~49=STERLING~56=VLCY~50=VSINKRIEG~109=VSIN~131=173337735-17-11~146=1~55=VIVE~38=500~10=254~
AFGLOCATE,11/22/19 07:24:52,SND:8=FIX.4.2~9=0116~35=R~52=20191122-12:24:52~34=687~49=STERLING~56=VLCY~50=VSINKRIEG~109=VSIN~131=173337758-18-11~146=1~55=VIVE~38=500~10=013~
AFGLOCATE,11/22/19 07:25:20,SND:8=FIX.4.2~9=0116~35=R~52=20191122-12:25:20~34=700~49=STERLING~56=VLCY~50=VSINKRIEG~109=VSIN~131=173337786-19-11~146=1~55=VIVE~38=500~10=253~
AFGLOCATE,11/22/19 07:25:46,SND:8=FIX.4.2~9=0116~35=R~52=20191122-12:25:46~34=724~49=STERLING~56=VLCY~50=VSINKRIEG~109=VSIN~131=173337798-20-11~146=1~55=VIVE~38=500~10=006~
AFGLOCATE,11/22/19 07:27:02,SND:8=FIX.4.2~9=0116~35=R~52=20191122-12:27:02~34=768~49=STERLING~56=VLCY~50=VSINKRIEG~109=VSIN~131=173337874-21-11~146=1~55=VIVE~38=500~10=004~
AFGLOCATE,11/22/19 07:27:38,SND:8=FIX.4.2~9=0116~35=R~52=20191122-12:27:38~34=787~49=STERLING~56=VLCY~50=VSINKRIEG~109=VSIN~131=173337906-22-11~146=1~55=VIVE~38=200~10=008~
AFGLOCATE,11/22/19 07:27:58,SND:8=FIX.4.2~9=0116~35=R~52=20191122-12:27:58~34=806~49=STERLING~56=VLCY~50=VSINKRIEG~109=VSIN~131=173337927-23-11~146=1~55=VIVE~38=500~10=009~
AFGLOCATE,11/22/19 07:28:28,SND:8=FIX.4.2~9=0116~35=R~52=20191122-12:28:28~34=832~49=STERLING~56=VLCY~50=VSINKRIEG~109=VSIN~131=173337949-24-11~146=1~55=VIVE~38=500~10=011~
AFGLOCATE,11/22/19 07:28:41,SND:8=FIX.4.2~9=0119~35=R~52=20191122-12:28:41~34=845~49=STERLING~56=VLCY~50=ANT15JT5010~109=VSIN~131=173337958-165-11~146=1~55=UBOH~38=100~10=046~
AFGLOCATE,11/22/19 07:28:44,SND:8=FIX.4.2~9=0153~35=D~52=20191122-12:28:44~34=847~49=STERLING~56=VLCY~50=ANT15JT5010~109=VSIN~11=173337958-166-11~55=UBOH~54=1~38=100~60=20191122-12:28:44~21=1~40=1~59=4~10=080~
AFGLOCATE,11/22/19 07:28:44,RCV:8=FIX.4.2~9=240~35=8~34=790~49=VLCY~50=ANT15JT5010~52=20191122-12:28:44.426~56=STERLING~6=0.012~11=173337958-166-11~14=100~17=2854797~20=0~31=0.012~32=100~37=2854797~38=100~39=2~40=1~44=0.012~54=1~55=UBOH~59=4~60=20191122-12:28:44.422~109=VSIN~150=2~151=0~10=188~
AFGLOCATE,11/22/19 07:29:05,SND:8=FIX.4.2~9=0116~35=R~52=20191122-12:29:05~34=867~49=STERLING~56=VLCY~50=VSINKRIEG~109=VSIN~131=173337974-25-11~146=1~55=VIVE~38=500~10=014~
AFGLOCATE,11/22/19 07:29:33,SND:8=FIX.4.2~9=0116~35=R~52=20191122-12:29:33~34=880~49=STERLING~56=VLCY~50=VSINKRIEG~109=VSIN~131=173337988-26-11~146=1~55=VIVE~38=500~10=016~
AFGLOCATE,11/22/19 07:29:44,SND:8=FIX.4.2~9=0116~35=R~52=20191122-12:29:44~34=891~49=STERLING~56=VLCY~50=VSINKRIEG~109=VSIN~131=173338006-27-11~146=1~55=VIVE~38=500~10=003~
AFGLOCATE,11/22/19 07:30:26,SND:8=FIX.4.2~9=0116~35=R~52=20191122-12:30:26~34=946~49=STERLING~56=VLCY~50=VSINKRIEG~109=VSIN~131=173338038-28-11~146=1~55=VIVE~38=500~10=002~
AFGLOCATE,11/22/19 07:30:40,SND:8=FIX.4.2~9=0116~35=R~52=20191122-12:30:40~34=970~49=STERLING~56=VLCY~50=VSINKRIEG~109=VSIN~131=173338044-29-11~146=1~55=VIVE~38=500~10=249~
AFGLOCATE,11/22/19 07:31:01,SND:8=FIX.4.2~9=0117~35=R~52=20191122-12:31:01~34=1012~49=STERLING~56=VLCY~50=VSINKRIEG~109=VSIN~131=173338064-30-11~146=1~55=VIVE~38=500~10=022~
AFGLOCATE,11/22/19 07:31:15,SND:8=FIX.4.2~9=0117~35=R~52=20191122-12:31:15~34=1028~49=STERLING~56=VLCY~50=VSINKRIEG~109=VSIN~131=173338080-31-11~146=1~55=VIVE~38=500~10=033~
AFGLOCATE,11/22/19 07:31:44,SND:8=FIX.4.2~9=0117~35=R~52=20191122-12:31:44~34=1061~49=STERLING~56=VLCY~50=VSINKRIEG~109=VSIN~131=173338119-32-11~146=1~55=VIVE~38=500~10=036~
AFGLOCATE,11/22/19 07:32:01,SND:8=FIX.4.2~9=0117~35=R~52=20191122-12:32:01~34=1072~49=STERLING~56=VLCY~50=VSINKRIEG~109=VSIN~131=173338132-33-11~146=1~55=VIVE~38=500~10=028~
AFGLOCATE,11/22/19 07:32:28,SND:8=FIX.4.2~9=0117~35=R~52=20191122-12:32:28~34=1096~49=STERLING~56=VLCY~50=VSINKRIEG~109=VSIN~131=173338169-34-11~146=1~55=VIVE~38=500~10=054~
AFGLOCATE,11/22/19 07:35:09,SND:8=FIX.4.2~9=0117~35=R~52=20191122-12:35:09~34=1285~49=STERLING~56=VLCY~50=VSINKRIEG~109=VSIN~131=173338325-35-11~146=1~55=VIVE~38=500~10=051~
AFGLOCATE,11/22/19 07:35:49,SND:8=FIX.4.2~9=0117~35=R~52=20191122-12:35:49~34=1306~49=STERLING~56=VLCY~50=VSINKRIEG~109=VSIN~131=173338387-36-11~146=1~55=VIVE~38=500~10=058~
AFGLOCATE,11/22/19 07:36:04,SND:8=FIX.4.2~9=0151~35=D~52=20191122-12:36:04~34=1310~49=STERLING~56=VLCY~50=VSINKRIEG~109=VSIN~11=173338387-37-11~55=VIVE~54=1~38=400~60=20191122-12:36:04~21=1~40=1~59=4~10=068~
AFGLOCATE,11/22/19 07:36:05,RCV:8=FIX.4.2~9=238~35=8~34=1238~49=VLCY~50=VSINKRIEG~52=20191122-12:36:05.116~56=STERLING~6=0.407~11=173338387-37-11~14=400~17=2854853~20=0~31=0.407~32=400~37=2854853~38=400~39=2~40=1~44=0.407~54=1~55=VIVE~59=4~60=20191122-12:36:05.107~109=VSIN~150=2~151=0~10=211~
AFGLOCATE,11/22/19 07:46:41,SND:8=FIX.4.2~9=0120~35=R~52=20191122-12:46:41~34=1765~49=STERLING~56=VLCY~50=ANT15JT5010~109=VSIN~131=173339110-355-11~146=1~55=AUBN~38=100~10=063~
AFGLOCATE,11/22/19 07:46:43,SND:8=FIX.4.2~9=0154~35=D~52=20191122-12:46:43~34=1766~49=STERLING~56=VLCY~50=ANT15JT5010~109=VSIN~11=173339110-356-11~55=AUBN~54=1~38=100~60=20191122-12:46:43~21=1~40=1~59=4~10=103~
AFGLOCATE,11/22/19 07:46:43,RCV:8=FIX.4.2~9=241~35=8~34=1674~49=VLCY~50=ANT15JT5010~52=20191122-12:46:43.780~56=STERLING~6=0.018~11=173339110-356-11~14=100~17=2854958~20=0~31=0.018~32=100~37=2854958~38=100~39=2~40=1~44=0.018~54=1~55=AUBN~59=4~60=20191122-12:46:43.775~109=VSIN~150=2~151=0~10=242~
AFGLOCATE,11/22/19 07:47:22,SND:8=FIX.4.2~9=0114~35=R~52=20191122-12:47:22~34=1772~49=STERLING~56=VLCY~50=JSG0000~109=VSIN~131=173339124-1-11~146=1~55=EYEG~38=100~10=212~
AFGLOCATE,11/22/19 07:47:23,SND:8=FIX.4.2~9=0112~35=R~52=20191122-12:47:23~34=1773~49=STERLING~56=VLCY~50=JTTFD~109=VSIN~131=32217370-7-19~146=1~55=VIVE~38=5000~10=198~
AFGLOCATE,11/22/19 07:47:26,SND:8=FIX.4.2~9=0115~35=R~52=20191122-12:47:26~34=1776~49=STERLING~56=VLCY~50=HWJD5003~109=VSIN~131=32217371-46-19~146=1~55=VIVE~38=100~10=072~
AFGLOCATE,11/22/19 07:47:29,SND:8=FIX.4.2~9=0114~35=R~52=20191122-12:47:29~34=1777~49=STERLING~56=VLCY~50=JSG0000~109=VSIN~131=173339134-3-11~146=1~55=VIVE~38=100~10=243~
AFGLOCATE,11/22/19 07:48:09,SND:8=FIX.4.2~9=0112~35=R~52=20191122-12:48:09~34=1784~49=STERLING~56=VLCY~50=JTTFD~109=VSIN~131=32217372-8-19~146=1~55=VIVE~38=2500~10=210~
AFGLOCATE,11/22/19 07:50:28,SND:8=FIX.4.2~9=0114~35=R~52=20191122-12:50:28~34=1815~49=STERLING~56=VLCY~50=JSG0000~109=VSIN~131=173339246-4-11~146=1~55=HEXO~38=100~10=228~
AFGLOCATE,11/22/19 07:50:41,SND:8=FIX.4.2~9=0114~35=R~52=20191122-12:50:41~34=1816~49=STERLING~56=VLCY~50=JSG0000~109=VSIN~131=173339248-5-11~146=1~55=HEXO~38=100~10=227~
AFGLOCATE,11/22/19 07:52:14,SND:8=FIX.4.2~9=0114~35=R~52=20191122-12:52:14~34=1833~49=STERLING~56=VLCY~50=JSG0000~109=VSIN~131=173339328-6-11~146=1~55=HEXO~38=100~10=228~
AFGLOCATE,11/22/19 07:53:01,SND:8=FIX.4.2~9=0112~35=R~52=20191122-12:53:01~34=1836~49=STERLING~56=VLCY~50=JTTFD~109=VSIN~131=32217387-9-19~146=1~55=VIVE~38=5000~10=201~
AFGLOCATE,11/22/19 07:53:59,SND:8=FIX.4.2~9=0114~35=R~52=20191122-12:53:59~34=1843~49=STERLING~56=VLCY~50=SMRT011~109=VSIN~131=173339460-5-11~146=1~55=INMD~38=100~10=019~
AFGLOCATE,11/22/19 08:05:30,SND:8=FIX.4.2~9=0120~35=R~52=20191122-13:05:30~34=1962~49=STERLING~56=VLCY~50=ANT15JT5002~109=VSIN~131=173340381-48-11~146=1~55=IBKCP~38=100~10=077~
AFGLOCATE,11/22/19 08:05:38,SND:8=FIX.4.2~9=0154~35=D~52=20191122-13:05:38~34=1964~49=STERLING~56=VLCY~50=ANT15JT5002~109=VSIN~11=173340381-49-11~55=IBKCP~54=1~38=100~60=20191122-13:05:38~21=1~40=1~59=4~10=124~
AFGLOCATE,11/22/19 08:05:38,RCV:8=FIX.4.2~9=241~35=8~34=1841~49=VLCY~50=ANT15JT5002~52=20191122-13:05:38.405~56=STERLING~6=0.033~11=173340381-49-11~14=100~17=2855107~20=0~31=0.033~32=100~37=2855107~38=100~39=2~40=1~44=0.033~54=1~55=IBKCP~59=4~60=20191122-13:05:38.398~109=VSIN~150=2~151=0~10=219~
AFGLOCATE,11/22/19 08:06:16,SND:8=FIX.4.2~9=0115~35=R~52=20191122-13:06:16~34=1972~49=STERLING~56=VLCY~50=JSG0000~109=VSIN~131=173340437-11-11~146=1~55=WKHS~38=100~10=025~
AFGLOCATE,11/22/19 08:06:19,SND:8=FIX.4.2~9=0149~35=D~52=20191122-13:06:19~34=1973~49=STERLING~56=VLCY~50=JSG0000~109=VSIN~11=173340437-12-11~55=WKHS~54=1~38=100~60=20191122-13:06:19~21=1~40=1~59=4~10=066~
AFGLOCATE,11/22/19 08:06:19,RCV:8=FIX.4.2~9=236~35=8~34=1849~49=VLCY~50=JSG0000~52=20191122-13:06:19.778~56=STERLING~6=0.031~11=173340437-12-11~14=100~17=2855123~20=0~31=0.031~32=100~37=2855123~38=100~39=2~40=1~44=0.031~54=1~55=WKHS~59=4~60=20191122-13:06:19.772~109=VSIN~150=2~151=0~10=168~
AFGLOCATE,11/22/19 08:24:51,SND:8=FIX.4.2~9=0115~35=R~52=20191122-13:24:51~34=2133~49=STERLING~56=VLCY~50=JSG0000~109=VSIN~131=173342391-17-11~146=1~55=EYEG~38=100~10=002~
AFGLOCATE,11/22/19 08:32:10,SND:8=FIX.4.2~9=0115~35=R~52=20191122-13:32:10~34=2189~49=STERLING~56=VLCY~50=JSG0000~109=VSIN~131=173343327-19-11~146=1~55=EYEG~38=100~10=009~
AFGLOCATE,11/22/19 08:35:58,SND:8=FIX.4.2~9=0121~35=R~52=20191122-13:35:58~34=2215~49=STERLING~56=VLCY~50=TAK10STFTG1001~109=VSIN~131=173343775-1-11~146=1~55=CGC~38=2000~10=148~
AFGLOCATE,11/22/19 08:36:15,SND:8=FIX.4.2~9=0123~35=R~52=20191122-13:36:15~34=2217~49=STERLING~56=VLCY~50=TAK10STFTG1001~109=VSIN~131=173343807-3-11~146=1~55=CGC~38=100000~10=239~
AFGLOCATE,11/22/19 08:39:15,SND:8=FIX.4.2~9=0114~35=R~52=20191122-13:39:15~34=2260~49=STERLING~56=VLCY~50=SMRT011~109=VSIN~131=173344205-6-11~146=1~55=CGC~38=8000~10=224~
AFGLOCATE,11/22/19 08:39:17,SND:8=FIX.4.2~9=0148~35=D~52=20191122-13:39:17~34=2261~49=STERLING~56=VLCY~50=SMRT011~109=VSIN~11=173344205-7-11~55=CGC~54=1~38=8000~60=20191122-13:39:17~21=1~40=1~59=4~10=012~
AFGLOCATE,11/22/19 08:39:17,RCV:8=FIX.4.2~9=237~35=8~34=2092~49=VLCY~50=SMRT011~52=20191122-13:39:17.524~56=STERLING~6=0.031~11=173344205-7-11~14=8000~17=2855441~20=0~31=0.031~32=8000~37=2855441~38=8000~39=2~40=1~44=0.031~54=1~55=CGC~59=4~60=20191122-13:39:17.520~109=VSIN~150=2~151=0~10=212~
AFGLOCATE,11/22/19 08:41:42,SND:8=FIX.4.2~9=0114~35=R~52=20191122-13:41:42~34=2273~49=STERLING~56=VLCY~50=PANG012~109=VSIN~131=32217695-36-19~146=1~55=ORGO~38=100~10=002~
AFGLOCATE,11/22/19 08:41:59,SND:8=FIX.4.2~9=0114~35=R~52=20191122-13:41:59~34=2278~49=STERLING~56=VLCY~50=PANG012~109=VSIN~131=32217701-37-19~146=1~55=EYEG~38=100~10=247~
AFGLOCATE,11/22/19 09:00:22,SND:8=FIX.4.2~9=0113~35=R~52=20191122-14:00:22~34=2414~49=STERLING~56=VLCY~50=JTTFD~109=VSIN~131=32217762-15-19~146=1~55=VIVE~38=3000~10=232~
AFGLOCATE,11/22/19 09:29:02,SND:8=FIX.4.2~9=0114~35=R~52=20191122-14:29:02~34=2835~49=STERLING~56=VLCY~50=JTTFD~109=VSIN~131=32217861-16-19~146=1~55=ACST~38=15000~10=030~
AFGLOCATE,11/22/19 09:33:00,SND:8=FIX.4.2~9=0115~35=R~52=20191122-14:33:00~34=2971~49=STERLING~56=VLCY~50=JSG0000~109=VSIN~131=173352582-31-11~146=1~55=EYEG~38=100~10=006~
AFGLOCATE,11/22/19 09:34:15,SND:8=FIX.4.2~9=0119~35=R~52=20191122-14:34:15~34=2999~49=STERLING~56=VLCY~50=ANT15JT8004~109=VSIN~131=173353421-30-11~146=1~55=MNSB~38=100~10=040~
AFGLOCATE,11/22/19 09:34:16,SND:8=FIX.4.2~9=0153~35=D~52=20191122-14:34:16~34=3000~49=STERLING~56=VLCY~50=ANT15JT8004~109=VSIN~11=173353421-31-11~55=MNSB~54=1~38=100~60=20191122-14:34:16~21=1~40=1~59=4~10=042~
AFGLOCATE,11/22/19 09:34:17,RCV:8=FIX.4.2~9=240~35=8~34=2748~49=VLCY~50=ANT15JT8004~52=20191122-14:34:17.210~56=STERLING~6=0.012~11=173353421-31-11~14=100~17=2856106~20=0~31=0.012~32=100~37=2856106~38=100~39=2~40=1~44=0.012~54=1~55=MNSB~59=4~60=20191122-14:34:17.206~109=VSIN~150=2~151=0~10=136~
AFGLOCATE,11/22/19 09:35:48,SND:8=FIX.4.2~9=0119~35=R~52=20191122-14:35:48~34=3043~49=STERLING~56=VLCY~50=ANT15JT9009~109=VSIN~131=173354323-23-11~146=1~55=CRWS~38=600~10=058~
AFGLOCATE,11/22/19 09:35:52,SND:8=FIX.4.2~9=0153~35=D~52=20191122-14:35:52~34=3046~49=STERLING~56=VLCY~50=ANT15JT9009~109=VSIN~11=173354323-24-11~55=CRWS~54=1~38=600~60=20191122-14:35:52~21=1~40=1~59=4~10=084~
AFGLOCATE,11/22/19 09:35:52,RCV:8=FIX.4.2~9=240~35=8~34=2790~49=VLCY~50=ANT15JT9009~52=20191122-14:35:52.428~56=STERLING~6=0.014~11=173354323-24-11~14=600~17=2856146~20=0~31=0.014~32=600~37=2856146~38=600~39=2~40=1~44=0.014~54=1~55=CRWS~59=4~60=20191122-14:35:52.424~109=VSIN~150=2~151=0~10=200~
AFGLOCATE,11/22/19 09:38:55,SND:8=FIX.4.2~9=0119~35=R~52=20191122-14:38:55~34=3124~49=STERLING~56=VLCY~50=ANT15JT8006~109=VSIN~131=173356049-17-11~146=1~55=ITRM~38=100~10=057~
AFGLOCATE,11/22/19 09:39:00,SND:8=FIX.4.2~9=0118~35=R~52=20191122-14:39:00~34=3125~49=STERLING~56=VLCY~50=ANT15JT8011~109=VSIN~131=173356094-1-11~146=1~55=GHYG~38=500~10=236~
AFGLOCATE,11/22/19 09:43:41,SND:8=FIX.4.2~9=0118~35=R~52=20191122-14:43:41~34=3345~49=STERLING~56=VLCY~50=ANT15JT8008~109=VSIN~131=173358875-5-11~146=1~55=ASLN~38=100~10=254~
AFGLOCATE,11/22/19 09:43:46,SND:8=FIX.4.2~9=0119~35=R~52=20191122-14:43:46~34=3347~49=STERLING~56=VLCY~50=ANT15JT8006~109=VSIN~131=173358916-23-11~146=1~55=MRIN~38=100~10=056~
AFGLOCATE,11/22/19 09:47:13,SND:8=FIX.4.2~9=0115~35=R~52=20191122-14:47:13~34=3506~49=STERLING~56=VLCY~50=HWJD5009~109=VSIN~131=32223038-80-19~146=1~55=EPIX~38=100~10=060~
AFGLOCATE,11/22/19 09:48:39,SND:8=FIX.4.2~9=0119~35=R~52=20191122-14:48:39~34=3555~49=STERLING~56=VLCY~50=ANT15JT8008~109=VSIN~131=173361754-15-11~146=1~55=ASLN~38=100~10=053~
AFGLOCATE,11/22/19 09:51:06,SND:8=FIX.4.2~9=0119~35=R~52=20191122-14:51:06~34=3675~49=STERLING~56=VLCY~50=ANT15JT8006~109=VSIN~131=173363108-43-11~146=1~55=PRTH~38=100~10=054~
AFGLOCATE,11/22/19 09:51:09,SND:8=FIX.4.2~9=0153~35=D~52=20191122-14:51:09~34=3679~49=STERLING~56=VLCY~50=ANT15JT8006~109=VSIN~11=173363108-44-11~55=PRTH~54=1~38=100~60=20191122-14:51:09~21=1~40=1~59=4~10=089~
AFGLOCATE,11/22/19 09:51:09,RCV:8=FIX.4.2~9=240~35=8~34=3393~49=VLCY~50=ANT15JT8006~52=20191122-14:51:09.922~56=STERLING~6=0.017~11=173363108-44-11~14=100~17=2856521~20=0~31=0.017~32=100~37=2856521~38=100~39=2~40=1~44=0.017~54=1~55=PRTH~59=4~60=20191122-14:51:09.918~109=VSIN~150=2~151=0~10=193~
AFGLOCATE,11/22/19 09:54:44,SND:8=FIX.4.2~9=0119~35=R~52=20191122-14:54:44~34=3862~49=STERLING~56=VLCY~50=ANT15JT8008~109=VSIN~131=173365299-19-11~146=1~55=EPIX~38=500~10=071~
AFGLOCATE,11/22/19 09:54:54,SND:8=FIX.4.2~9=0118~35=R~52=20191122-14:54:54~34=3877~49=STERLING~56=VLCY~50=ANT15JT8007~109=VSIN~131=173365398-1-11~146=1~55=EPIX~38=500~10=019~
AFGLOCATE,11/22/19 09:54:55,SND:8=FIX.4.2~9=0115~35=R~52=20191122-14:54:55~34=3879~49=STERLING~56=VLCY~50=ANTB2005~109=VSIN~131=173365408-41-11~146=1~55=TPL~38=100~10=043~
AFGLOCATE,11/22/19 09:54:56,SND:8=FIX.4.2~9=0149~35=D~52=20191122-14:54:56~34=3880~49=STERLING~56=VLCY~50=ANTB2005~109=VSIN~11=173365408-42-11~55=TPL~54=1~38=100~60=20191122-14:54:56~21=1~40=1~59=4~10=078~
AFGLOCATE,11/22/19 09:54:57,RCV:8=FIX.4.2~9=236~35=8~34=3586~49=VLCY~50=ANTB2005~52=20191122-14:54:57.083~56=STERLING~6=0.013~11=173365408-42-11~14=100~17=2856612~20=0~31=0.013~32=100~37=2856612~38=100~39=2~40=1~44=0.013~54=1~55=TPL~59=4~60=20191122-14:54:57.078~109=VSIN~150=2~151=0~10=179~
AFGLOCATE,11/22/19 09:55:57,SND:8=FIX.4.2~9=0118~35=R~52=20191122-14:55:57~34=3942~49=STERLING~56=VLCY~50=VSINKRIEG~109=VSIN~131=173366007-43-11~146=1~55=ASLN~38=3000~10=092~
AFGLOCATE,11/22/19 09:59:04,SND:8=FIX.4.2~9=0115~35=R~52=20191122-14:59:04~34=4098~49=STERLING~56=VLCY~50=JSG0000~109=VSIN~131=173367617-38-11~146=1~55=CLVS~38=100~10=046~
AFGLOCATE,11/22/19 09:59:08,SND:8=FIX.4.2~9=0149~35=D~52=20191122-14:59:08~34=4105~49=STERLING~56=VLCY~50=JSG0000~109=VSIN~11=173367617-39-11~55=CLVS~54=1~38=100~60=20191122-14:59:08~21=1~40=1~59=4~10=083~
AFGLOCATE,11/22/19 09:59:09,RCV:8=FIX.4.2~9=236~35=8~34=3803~49=VLCY~50=JSG0000~52=20191122-14:59:09.216~56=STERLING~6=0.042~11=173367617-39-11~14=100~17=2856691~20=0~31=0.042~32=100~37=2856691~38=100~39=2~40=1~44=0.042~54=1~55=CLVS~59=4~60=20191122-14:59:09.211~109=VSIN~150=2~151=0~10=192~
AFGLOCATE,11/22/19 09:59:50,SND:8=FIX.4.2~9=0118~35=R~52=20191122-14:59:50~34=4141~49=STERLING~56=VLCY~50=VSINKRIEG~109=VSIN~131=173367983-44-11~146=1~55=ASLN~38=3000~10=096~
AFGLOCATE,11/22/19 09:59:55,SND:8=FIX.4.2~9=0118~35=R~52=20191122-14:59:55~34=4145~49=STERLING~56=VLCY~50=VSINKRIEG~109=VSIN~131=173368021-45-11~146=1~55=ASLN~38=2700~10=096~
AFGLOCATE,11/22/19 10:00:48,SND:8=FIX.4.2~9=0118~35=R~52=20191122-15:00:48~34=4186~49=STERLING~56=VLCY~50=VSINKRIEG~109=VSIN~131=173368520-46-11~146=1~55=ASLN~38=2700~10=095~
AFGLOCATE,11/22/19 10:01:32,SND:8=FIX.4.2~9=0118~35=R~52=20191122-15:01:32~34=4220~49=STERLING~56=VLCY~50=VSINKRIEG~109=VSIN~131=173368927-47-11~146=1~55=ASLN~38=2700~10=090~
AFGLOCATE,11/22/19 10:02:02,SND:8=FIX.4.2~9=0118~35=R~52=20191122-15:02:02~34=4245~49=STERLING~56=VLCY~50=VSINKRIEG~109=VSIN~131=173369205-48-11~146=1~55=ASLN~38=2700~10=086~
AFGLOCATE,11/22/19 10:02:36,SND:8=FIX.4.2~9=0119~35=R~52=20191122-15:02:36~34=4254~49=STERLING~56=VLCY~50=ANT15JT9009~109=VSIN~131=173369521-72-11~146=1~55=ARTL~38=400~10=051~
AFGLOCATE,11/22/19 10:03:03,SND:8=FIX.4.2~9=0118~35=R~52=20191122-15:03:03~34=4273~49=STERLING~56=VLCY~50=VSINKRIEG~109=VSIN~131=173369751-49-11~146=1~55=ASLN~38=2700~10=096~
AFGLOCATE,11/22/19 10:03:20,SND:8=FIX.4.2~9=0115~35=R~52=20191122-15:03:20~34=4291~49=STERLING~56=VLCY~50=JSG0000~109=VSIN~131=173369907-42-11~146=1~55=EYEG~38=100~10=014~
AFGLOCATE,11/22/19 10:03:35,SND:8=FIX.4.2~9=0118~35=R~52=20191122-15:03:35~34=4312~49=STERLING~56=VLCY~50=VSINKRIEG~109=VSIN~131=173370034-50-11~146=1~55=ASLN~38=2700~10=073~
AFGLOCATE,11/22/19 10:04:09,SND:8=FIX.4.2~9=0118~35=R~52=20191122-15:04:09~34=4353~49=STERLING~56=VLCY~50=VSINKRIEG~109=VSIN~131=173370307-51-11~146=1~55=ASLN~38=2700~10=084~
AFGLOCATE,11/22/19 10:04:11,SND:8=FIX.4.2~9=0119~35=R~52=20191122-15:04:11~34=4355~49=STERLING~56=VLCY~50=ANT15JT8008~109=VSIN~131=173370321-24-11~146=1~55=ASLN~38=500~10=029~
AFGLOCATE,11/22/19 10:04:52,SND:8=FIX.4.2~9=0118~35=R~52=20191122-15:04:52~34=4392~49=STERLING~56=VLCY~50=VSINKRIEG~109=VSIN~131=173370673-52-11~146=1~55=ASLN~38=2700~10=092~
AFGLOCATE,11/22/19 10:05:05,SND:8=FIX.4.2~9=0118~35=R~52=20191122-15:05:05~34=4398~49=STERLING~56=VLCY~50=VSINKRIEG~109=VSIN~131=173370749-53-11~146=1~55=ASLN~38=2700~10=102~
AFGLOCATE,11/22/19 10:06:28,SND:8=FIX.4.2~9=0118~35=R~52=20191122-15:06:28~34=4480~49=STERLING~56=VLCY~50=VSINKRIEG~109=VSIN~131=173371437-55-11~146=1~55=ASLN~38=2700~10=097~
AFGLOCATE,11/22/19 10:06:56,SND:8=FIX.4.2~9=0118~35=R~52=20191122-15:06:56~34=4490~49=STERLING~56=VLCY~50=VSINKRIEG~109=VSIN~131=173371671-56-11~146=1~55=ASLN~38=2700~10=100~
AFGLOCATE,11/22/19 10:07:19,SND:8=FIX.4.2~9=0118~35=R~52=20191122-15:07:19~34=4502~49=STERLING~56=VLCY~50=ANT15JT8011~109=VSIN~131=173371896-3-11~146=1~55=CEMB~38=500~10=227~
AFGLOCATE,11/22/19 10:07:21,SND:8=FIX.4.2~9=0152~35=D~52=20191122-15:07:21~34=4508~49=STERLING~56=VLCY~50=ANT15JT8011~109=VSIN~11=173371896-4-11~55=CEMB~54=1~38=500~60=20191122-15:07:21~21=1~40=1~59=4~10=250~
AFGLOCATE,11/22/19 10:07:22,RCV:8=FIX.4.2~9=239~35=8~34=4189~49=VLCY~50=ANT15JT8011~52=20191122-15:07:22.266~56=STERLING~6=0.019~11=173371896-4-11~14=500~17=2856781~20=0~31=0.019~32=500~37=2856781~38=500~39=2~40=1~44=0.019~54=1~55=CEMB~59=4~60=20191122-15:07:22.261~109=VSIN~150=2~151=0~10=143~
AFGLOCATE,11/22/19 10:07:33,SND:8=FIX.4.2~9=0118~35=R~52=20191122-15:07:33~34=4533~49=STERLING~56=VLCY~50=VSINKRIEG~109=VSIN~131=173372017-57-11~146=1~55=ASLN~38=2700~10=090~
AFGLOCATE,11/22/19 10:07:45,SND:8=FIX.4.2~9=0118~35=R~52=20191122-15:07:45~34=4542~49=STERLING~56=VLCY~50=ANT15JT8006~109=VSIN~131=173372125-54-11~146=1~55=CIH~38=100~10=203~
AFGLOCATE,11/22/19 10:07:46,SND:8=FIX.4.2~9=0152~35=D~52=20191122-15:07:46~34=4546~49=STERLING~56=VLCY~50=ANT15JT8006~109=VSIN~11=173372125-55-11~55=CIH~54=1~38=100~60=20191122-15:07:46~21=1~40=1~59=4~10=239~
AFGLOCATE,11/22/19 10:07:47,RCV:8=FIX.4.2~9=239~35=8~34=4227~49=VLCY~50=ANT15JT8006~52=20191122-15:07:47.185~56=STERLING~6=0.027~11=173372125-55-11~14=100~17=2856785~20=0~31=0.027~32=100~37=2856785~38=100~39=2~40=1~44=0.027~54=1~55=CIH~59=4~60=20191122-15:07:47.178~109=VSIN~150=2~151=0~10=127~
AFGLOCATE,11/22/19 10:07:58,SND:8=FIX.4.2~9=0118~35=R~52=20191122-15:07:58~34=4558~49=STERLING~56=VLCY~50=VSINKRIEG~109=VSIN~131=173372253-58-11~146=1~55=ASLN~38=2700~10=107~
AFGLOCATE,11/22/19 10:09:02,SND:8=FIX.4.2~9=0118~35=R~52=20191122-15:09:02~34=4579~49=STERLING~56=VLCY~50=VSINKRIEG~109=VSIN~131=173372923-59-11~146=1~55=ASLN~38=2700~10=106~
AFGLOCATE,11/22/19 10:09:03,SND:8=FIX.4.2~9=0118~35=R~52=20191122-15:09:03~34=4583~49=STERLING~56=VLCY~50=ANT15JT8007~109=VSIN~131=173372937-3-11~146=1~55=ASLN~38=500~10=000~
AFGLOCATE,11/22/19 10:09:25,SND:8=FIX.4.2~9=0115~35=R~52=20191122-15:09:25~34=4629~49=STERLING~56=VLCY~50=HWJD5005~109=VSIN~131=32228973-67-19~146=1~55=ASLN~38=200~10=076~
AFGLOCATE,11/22/19 10:09:56,SND:8=FIX.4.2~9=0119~35=R~52=20191122-15:09:56~34=4642~49=STERLING~56=VLCY~50=ANT15JT8008~109=VSIN~131=173373430-26-11~146=1~55=EPIX~38=500~10=056~
AFGLOCATE,11/22/19 10:10:05,SND:8=FIX.4.2~9=0118~35=R~52=20191122-15:10:05~34=4648~49=STERLING~56=VLCY~50=VSINKRIEG~109=VSIN~131=173373494-60-11~146=1~55=ASLN~38=1200~10=088~
AFGLOCATE,11/22/19 10:11:23,SND:8=FIX.4.2~9=0118~35=R~52=20191122-15:11:23~34=4660~49=STERLING~56=VLCY~50=VSINKRIEG~109=VSIN~131=173374053-61-11~146=1~55=ASLN~38=1200~10=076~
AFGLOCATE,11/22/19 10:12:33,SND:8=FIX.4.2~9=0118~35=R~52=20191122-15:12:33~34=4694~49=STERLING~56=VLCY~50=VSINKRIEG~109=VSIN~131=173374589-62-11~146=1~55=ASLN~38=1200~10=100~
AFGLOCATE,11/22/19 10:14:36,SND:8=FIX.4.2~9=0118~35=R~52=20191122-15:14:36~34=4710~49=STERLING~56=VLCY~50=VSINKRIEG~109=VSIN~131=173375586-63-11~146=1~55=ASLN~38=1200~10=093~
AFGLOCATE,11/22/19 10:15:27,SND:8=FIX.4.2~9=0118~35=R~52=20191122-15:15:27~34=4749~49=STERLING~56=VLCY~50=VSINKRIEG~109=VSIN~131=173376011-64-11~146=1~55=ASLN~38=1200~10=091~
AFGLOCATE,11/22/19 10:16:07,SND:8=FIX.4.2~9=0118~35=R~52=20191122-15:16:07~34=4759~49=STERLING~56=VLCY~50=VSINKRIEG~109=VSIN~131=173376279-65-11~146=1~55=ASLN~38=1200~10=108~
AFGLOCATE,11/22/19 10:16:59,SND:8=FIX.4.2~9=0120~35=R~52=20191122-15:16:59~34=4781~49=STERLING~56=VLCY~50=ANT15JT9008~109=VSIN~131=173376623-168-11~146=1~55=PLIN~38=100~10=109~
AFGLOCATE,11/22/19 10:17:06,SND:8=FIX.4.2~9=0118~35=R~52=20191122-15:17:06~34=4783~49=STERLING~56=VLCY~50=VSINKRIEG~109=VSIN~131=173376656-66-11~146=1~55=ASLN~38=1200~10=105~
AFGLOCATE,11/22/19 10:17:08,SND:8=FIX.4.2~9=0120~35=R~52=20191122-15:17:08~34=4785~49=STERLING~56=VLCY~50=ANT15JT9008~109=VSIN~131=173376690-169-11~146=1~55=PLIN~38=100~10=113~
AFGLOCATE,11/22/19 10:17:15,SND:8=FIX.4.2~9=0119~35=R~52=20191122-15:17:15~34=4790~49=STERLING~56=VLCY~50=ANT15JT9008~109=VSIN~131=173376744-170-11~146=1~55=PLIN~38=20~10=060~
AFGLOCATE,11/22/19 10:17:50,SND:8=FIX.4.2~9=0118~35=R~52=20191122-15:17:50~34=4800~49=STERLING~56=VLCY~50=VSINKRIEG~109=VSIN~131=173376998-67-11~146=1~55=ASLN~38=1200~10=104~
AFGLOCATE,11/22/19 10:18:03,SND:8=FIX.4.2~9=0120~35=R~52=20191122-15:18:03~34=4803~49=STERLING~56=VLCY~50=ANT15JT8004~109=VSIN~131=173377066-153-11~146=1~55=BRID~38=100~10=068~
AFGLOCATE,11/22/19 10:18:10,SND:8=FIX.4.2~9=0113~35=R~52=20191122-15:18:10~34=4807~49=STERLING~56=VLCY~50=JTTFD~109=VSIN~131=32230875-19-19~146=1~55=VIVE~38=5000~10=253~
AFGLOCATE,11/22/19 10:19:34,SND:8=FIX.4.2~9=0118~35=R~52=20191122-15:19:34~34=4833~49=STERLING~56=VLCY~50=VSINKRIEG~109=VSIN~131=173377666-68-11~146=1~55=ASLN~38=1200~10=108~
AFGLOCATE,11/22/19 10:20:19,SND:8=FIX.4.2~9=0118~35=R~52=20191122-15:20:19~34=4867~49=STERLING~56=VLCY~50=VSINKRIEG~109=VSIN~131=173378027-69-11~146=1~55=ASLN~38=1300~10=104~
AFGLOCATE,11/22/19 10:20:42,SND:8=FIX.4.2~9=0119~35=R~52=20191122-15:20:42~34=4872~49=STERLING~56=VLCY~50=ANT15JT8006~109=VSIN~131=173378154-79-11~146=1~55=PRTH~38=100~10=067~
AFGLOCATE,11/22/19 10:20:43,SND:8=FIX.4.2~9=0153~35=D~52=20191122-15:20:43~34=4873~49=STERLING~56=VLCY~50=ANT15JT8006~109=VSIN~11=173378154-80-11~55=PRTH~54=1~38=100~60=20191122-15:20:43~21=1~40=1~59=4~10=083~
AFGLOCATE,11/22/19 10:20:44,RCV:8=FIX.4.2~9=240~35=8~34=4531~49=VLCY~50=ANT15JT8006~52=20191122-15:20:44.058~56=STERLING~6=0.017~11=173378154-80-11~14=100~17=2856876~20=0~31=0.017~32=100~37=2856876~38=100~39=2~40=1~44=0.017~54=1~55=PRTH~59=4~60=20191122-15:20:44.053~109=VSIN~150=2~151=0~10=203~
AFGLOCATE,11/22/19 10:21:08,SND:8=FIX.4.2~9=0118~35=R~52=20191122-15:21:08~34=4887~49=STERLING~56=VLCY~50=VSINKRIEG~109=VSIN~131=173378329-70-11~146=1~55=ASLN~38=1300~10=102~
AFGLOCATE,11/22/19 10:21:44,SND:8=FIX.4.2~9=0119~35=R~52=20191122-15:21:44~34=4915~49=STERLING~56=VLCY~50=ANT15JT8006~109=VSIN~131=173378603-84-11~146=1~55=PRTH~38=300~10=065~
AFGLOCATE,11/22/19 10:21:47,SND:8=FIX.4.2~9=0153~35=D~52=20191122-15:21:47~34=4916~49=STERLING~56=VLCY~50=ANT15JT8006~109=VSIN~11=173378603-85-11~55=PRTH~54=1~38=100~60=20191122-15:21:47~21=1~40=1~59=4~10=095~
AFGLOCATE,11/22/19 10:21:47,RCV:8=FIX.4.2~9=240~35=8~34=4572~49=VLCY~50=ANT15JT8006~52=20191122-15:21:47.961~56=STERLING~6=0.017~11=173378603-85-11~14=100~17=2856880~20=0~31=0.017~32=100~37=2856880~38=100~39=2~40=1~44=0.017~54=1~55=PRTH~59=4~60=20191122-15:21:47.956~109=VSIN~150=2~151=0~10=225~
AFGLOCATE,11/22/19 10:22:03,SND:8=FIX.4.2~9=0119~35=R~52=20191122-15:22:03~34=4932~49=STERLING~56=VLCY~50=ANT15JT8006~109=VSIN~131=173378719-86-11~146=1~55=PRTH~38=100~10=068~
AFGLOCATE,11/22/19 10:24:07,SND:8=FIX.4.2~9=0117~35=R~52=20191122-15:24:07~34=5009~49=STERLING~56=VLCY~50=VSINKRIEG~109=VSIN~131=173379630-71-11~146=1~55=ASLN~38=400~10=039~
AFGLOCATE,11/22/19 10:26:05,SND:8=FIX.4.2~9=0117~35=R~52=20191122-15:26:05~34=5054~49=STERLING~56=VLCY~50=VSINKRIEG~109=VSIN~131=173380502-72-11~146=1~55=ASLN~38=400~10=030~
AFGLOCATE,11/22/19 10:29:22,SND:8=FIX.4.2~9=0117~35=R~52=20191122-15:29:22~34=5152~49=STERLING~56=VLCY~50=VSINKRIEG~109=VSIN~131=173381919-73-11~146=1~55=ASLN~38=400~10=045~
AFGLOCATE,11/22/19 10:31:05,SND:8=FIX.4.2~9=0117~35=R~52=20191122-15:31:05~34=5209~49=STERLING~56=VLCY~50=VSINKRIEG~109=VSIN~131=173382586-74-11~146=1~55=ASLN~38=400~10=044~
AFGLOCATE,11/22/19 10:35:23,SND:8=FIX.4.2~9=0113~35=R~52=20191122-15:35:23~34=5267~49=STERLING~56=VLCY~50=ZAIM014~109=VSIN~131=32234192-7-19~146=1~55=APRE~38=500~10=210~
AFGLOCATE,11/22/19 10:35:25,SND:8=FIX.4.2~9=0147~35=D~52=20191122-15:35:25~34=5269~49=STERLING~56=VLCY~50=ZAIM014~109=VSIN~11=32234192-8-19~55=APRE~54=1~38=500~60=20191122-15:35:25~21=1~40=1~59=4~10=252~
AFGLOCATE,11/22/19 10:35:26,RCV:8=FIX.4.2~9=234~35=8~34=4899~49=VLCY~50=ZAIM014~52=20191122-15:35:26.073~56=STERLING~6=0.018~11=32234192-8-19~14=500~17=2856943~20=0~31=0.018~32=500~37=2856943~38=500~39=2~40=1~44=0.018~54=1~55=APRE~59=4~60=20191122-15:35:26.068~109=VSIN~150=2~151=0~10=137~
AFGLOCATE,11/22/19 10:36:45,SND:8=FIX.4.2~9=0118~35=R~52=20191122-15:36:45~34=5281~49=STERLING~56=VLCY~50=ANT15JT8001~109=VSIN~131=173384759-61-11~146=1~55=HLG~38=100~10=222~
AFGLOCATE,11/22/19 10:36:54,SND:8=FIX.4.2~9=0114~35=R~52=20191122-15:36:54~34=5284~49=STERLING~56=VLCY~50=ZAIM014~109=VSIN~131=32234445-21-19~146=1~55=APRE~38=300~10=002~
AFGLOCATE,11/22/19 10:36:55,SND:8=FIX.4.2~9=0148~35=D~52=20191122-15:36:55~34=5285~49=STERLING~56=VLCY~50=ZAIM014~109=VSIN~11=32234445-22-19~55=APRE~54=1~38=300~60=20191122-15:36:55~21=1~40=1~59=4~10=046~
AFGLOCATE,11/22/19 10:36:56,RCV:8=FIX.4.2~9=235~35=8~34=4912~49=VLCY~50=ZAIM014~52=20191122-15:36:56.051~56=STERLING~6=0.018~11=32234445-22-19~14=300~17=2856957~20=0~31=0.018~32=300~37=2856957~38=300~39=2~40=1~44=0.018~54=1~55=APRE~59=4~60=20191122-15:36:56.046~109=VSIN~150=2~151=0~10=173~
AFGLOCATE,11/22/19 10:37:35,SND:8=FIX.4.2~9=0117~35=R~52=20191122-15:37:35~34=5297~49=STERLING~56=VLCY~50=VSINKRIEG~109=VSIN~131=173385016-75-11~146=1~55=ASLN~38=400~10=052~
AFGLOCATE,11/22/19 10:38:53,SND:8=FIX.4.2~9=0120~35=R~52=20191122-15:38:53~34=5344~49=STERLING~56=VLCY~50=ANT15JT5023~109=VSIN~131=173385447-173-11~146=1~55=OVBC~38=100~10=087~
AFGLOCATE,11/22/19 10:38:55,SND:8=FIX.4.2~9=0154~35=D~52=20191122-15:38:55~34=5348~49=STERLING~56=VLCY~50=ANT15JT5023~109=VSIN~11=173385447-174-11~55=OVBC~54=1~38=100~60=20191122-15:38:55~21=1~40=1~59=4~10=137~
AFGLOCATE,11/22/19 10:38:55,RCV:8=FIX.4.2~9=241~35=8~34=4971~49=VLCY~50=ANT15JT5023~52=20191122-15:38:55.770~56=STERLING~6=0.037~11=173385447-174-11~14=100~17=2856974~20=0~31=0.037~32=100~37=2856974~38=100~39=2~40=1~44=0.037~54=1~55=OVBC~59=4~60=20191122-15:38:55.766~109=VSIN~150=2~151=0~10=025~
AFGLOCATE,11/22/19 10:42:34,SND:8=FIX.4.2~9=0119~35=R~52=20191122-15:42:34~34=5385~49=STERLING~56=VLCY~50=ANT15JT9009~109=VSIN~131=173386631-107-11~146=1~55=HHT~38=500~10=029~
AFGLOCATE,11/22/19 10:42:35,SND:8=FIX.4.2~9=0153~35=D~52=20191122-15:42:35~34=5386~49=STERLING~56=VLCY~50=ANT15JT9009~109=VSIN~11=173386631-108-11~55=HHT~54=1~38=500~60=20191122-15:42:35~21=1~40=1~59=4~10=059~
AFGLOCATE,11/22/19 10:42:36,RCV:8=FIX.4.2~9=240~35=8~34=5004~49=VLCY~50=ANT15JT9009~52=20191122-15:42:36.234~56=STERLING~6=0.041~11=173386631-108-11~14=500~17=2857008~20=0~31=0.041~32=500~37=2857008~38=500~39=2~40=1~44=0.041~54=1~55=HHT~59=4~60=20191122-15:42:36.229~109=VSIN~150=2~151=0~10=151~
AFGLOCATE,11/22/19 10:49:12,SND:8=FIX.4.2~9=0112~35=R~52=20191122-15:49:12~34=5630~49=STERLING~56=VLCY~50=HT001~109=VSIN~131=32236569-70-19~146=1~55=ASLN~38=400~10=116~
AFGLOCATE,11/22/19 10:52:36,SND:8=FIX.4.2~9=0122~35=R~52=20191122-15:52:36~34=5723~49=STERLING~56=VLCY~50=ANT15JT5010~109=VSIN~131=173389624-2034-11~146=1~55=IBKCP~38=100~10=193~
AFGLOCATE,11/22/19 10:52:37,SND:8=FIX.4.2~9=0156~35=D~52=20191122-15:52:37~34=5725~49=STERLING~56=VLCY~50=ANT15JT5010~109=VSIN~11=173389624-2035-11~55=IBKCP~54=1~38=100~60=20191122-15:52:37~21=1~40=1~59=4~10=236~
AFGLOCATE,11/22/19 10:52:37,RCV:8=FIX.4.2~9=243~35=8~34=5323~49=VLCY~50=ANT15JT5010~52=20191122-15:52:37.975~56=STERLING~6=0.033~11=173389624-2035-11~14=100~17=2857105~20=0~31=0.033~32=100~37=2857105~38=100~39=2~40=1~44=0.033~54=1~55=IBKCP~59=4~60=20191122-15:52:37.971~109=VSIN~150=2~151=0~10=084~
AFGLOCATE,11/22/19 10:58:31,SND:8=FIX.4.2~9=0119~35=R~52=20191122-15:58:31~34=5928~49=STERLING~56=VLCY~50=ANT15JT8011~109=VSIN~131=173391381-7-11~146=1~55=IIGV~38=1000~10=048~
AFGLOCATE,11/22/19 11:02:48,SND:8=FIX.4.2~9=0119~35=R~52=20191122-16:02:48~34=6106~49=STERLING~56=VLCY~50=ANT15JT8008~109=VSIN~131=173392565-45-11~146=1~55=UROV~38=500~10=081~
AFGLOCATE,11/22/19 11:04:24,SND:8=FIX.4.2~9=0119~35=R~52=20191122-16:04:24~34=6179~49=STERLING~56=VLCY~50=ANT15JT8009~109=VSIN~131=173392950-31-11~146=1~55=EPIX~38=100~10=055~
AFGLOCATE,11/22/19 11:04:42,SND:8=FIX.4.2~9=0118~35=R~52=20191122-16:04:42~34=6190~49=STERLING~56=VLCY~50=ANT15JT8007~109=VSIN~131=173393023-4-11~146=1~55=GRIN~38=500~10=243~
AFGLOCATE,11/22/19 11:04:52,SND:8=FIX.4.2~9=0118~35=R~52=20191122-16:04:52~34=6199~49=STERLING~56=VLCY~50=ANT15JT8007~109=VSIN~131=173393077-5-11~146=1~55=GRIN~38=200~10=004~
AFGLOCATE,11/22/19 11:04:54,SND:8=FIX.4.2~9=0152~35=D~52=20191122-16:04:54~34=6203~49=STERLING~56=VLCY~50=ANT15JT8007~109=VSIN~11=173393077-6-11~55=GRIN~54=1~38=200~60=20191122-16:04:54~21=1~40=1~59=4~10=020~
AFGLOCATE,11/22/19 11:04:54,RCV:8=FIX.4.2~9=239~35=8~34=5776~49=VLCY~50=ANT15JT8007~52=20191122-16:04:54.773~56=STERLING~6=0.024~11=173393077-6-11~14=200~17=2857180~20=0~31=0.024~32=200~37=2857180~38=200~39=2~40=1~44=0.024~54=1~55=GRIN~59=4~60=20191122-16:04:54.769~109=VSIN~150=2~151=0~10=162~
AFGLOCATE,11/22/19 11:08:06,SND:8=FIX.4.2~9=0112~35=R~52=20191122-16:08:06~34=6368~49=STERLING~56=VLCY~50=HT001~109=VSIN~131=32240061-76-19~146=1~55=EPIX~38=400~10=120~
AFGLOCATE,11/22/19 11:08:56,SND:8=FIX.4.2~9=0116~35=R~52=20191122-16:08:56~34=6392~49=STERLING~56=VLCY~50=HWJD5009~109=VSIN~131=32240247-233-19~146=1~55=EPIX~38=100~10=122~
AFGLOCATE,11/22/19 11:17:29,SND:8=FIX.4.2~9=0115~35=R~52=20191122-16:17:29~34=6529~49=STERLING~56=VLCY~50=ZAIM014~109=VSIN~131=32241917-155-19~146=1~55=APRE~38=300~10=066~
AFGLOCATE,11/22/19 11:17:30,SND:8=FIX.4.2~9=0149~35=D~52=20191122-16:17:30~34=6530~49=STERLING~56=VLCY~50=ZAIM014~109=VSIN~11=32241917-156-19~55=APRE~54=1~38=300~60=20191122-16:17:30~21=1~40=1~59=4~10=085~
AFGLOCATE,11/22/19 11:17:31,RCV:8=FIX.4.2~9=236~35=8~34=6082~49=VLCY~50=ZAIM014~52=20191122-16:17:30.999~56=STERLING~6=0.018~11=32241917-156-19~14=300~17=2857255~20=0~31=0.018~32=300~37=2857255~38=300~39=2~40=1~44=0.018~54=1~55=APRE~59=4~60=20191122-16:17:30.996~109=VSIN~150=2~151=0~10=235~
AFGLOCATE,11/22/19 11:20:56,SND:8=FIX.4.2~9=0116~35=R~52=20191122-16:20:56~34=6569~49=STERLING~56=VLCY~50=VSINDINGE~109=VSIN~131=173397484-6-11~146=1~55=ETNB~38=300~10=247~
AFGLOCATE,11/22/19 11:21:01,SND:8=FIX.4.2~9=0150~35=D~52=20191122-16:21:01~34=6570~49=STERLING~56=VLCY~50=VSINDINGE~109=VSIN~11=173397484-7-11~55=ETNB~54=1~38=300~60=20191122-16:21:01~21=1~40=1~59=4~10=249~
AFGLOCATE,11/22/19 11:21:01,RCV:8=FIX.4.2~9=237~35=8~34=6116~49=VLCY~50=VSINDINGE~52=20191122-16:21:01.562~56=STERLING~6=0.069~11=173397484-7-11~14=300~17=2857270~20=0~31=0.069~32=300~37=2857270~38=300~39=2~40=1~44=0.069~54=1~55=ETNB~59=4~60=20191122-16:21:01.559~109=VSIN~150=2~151=0~10=139~
AFGLOCATE,11/22/19 11:21:30,SND:8=FIX.4.2~9=0119~35=R~52=20191122-16:21:30~34=6575~49=STERLING~56=VLCY~50=ANT15JT8002~109=VSIN~131=173397624-88-11~146=1~55=UROV~38=200~10=082~
AFGLOCATE,11/22/19 11:21:55,SND:8=FIX.4.2~9=0120~35=R~52=20191122-16:21:55~34=6579~49=STERLING~56=VLCY~50=ANT15JT9009~109=VSIN~131=173397758-149-11~146=1~55=TTPH~38=600~10=139~
AFGLOCATE,11/22/19 11:22:35,SND:8=FIX.4.2~9=0120~35=R~52=20191122-16:22:35~34=6583~49=STERLING~56=VLCY~50=ANT15JT9009~109=VSIN~131=173397896-150-11~146=1~55=ARTL~38=600~10=115~
AFGLOCATE,11/22/19 11:22:55,SND:8=FIX.4.2~9=0120~35=R~52=20191122-16:22:55~34=6586~49=STERLING~56=VLCY~50=ANT15JT9009~109=VSIN~131=173397950-151-11~146=1~55=ARTL~38=500~10=111~
AFGLOCATE,11/22/19 11:25:27,SND:8=FIX.4.2~9=0120~35=R~52=20191122-16:25:27~34=6606~49=STERLING~56=VLCY~50=ANT15JT9009~109=VSIN~131=173398628-152-11~146=1~55=ARTL~38=500~10=110~
AFGLOCATE,11/22/19 11:26:51,SND:8=FIX.4.2~9=0120~35=R~52=20191122-16:26:51~34=6617~49=STERLING~56=VLCY~50=ANT15JT8011~109=VSIN~131=173398998-14-11~146=1~55=WOOD~38=1000~10=111~
AFGLOCATE,11/22/19 11:26:53,SND:8=FIX.4.2~9=0154~35=D~52=20191122-16:26:53~34=6618~49=STERLING~56=VLCY~50=ANT15JT8011~109=VSIN~11=173398998-15-11~55=WOOD~54=1~38=1000~60=20191122-16:26:53~21=1~40=1~59=4~10=154~
AFGLOCATE,11/22/19 11:26:53,RCV:8=FIX.4.2~9=243~35=8~34=6155~49=VLCY~50=ANT15JT8011~52=20191122-16:26:53.819~56=STERLING~6=0.017~11=173398998-15-11~14=1000~17=2857308~20=0~31=0.017~32=1000~37=2857308~38=1000~39=2~40=1~44=0.017~54=1~55=WOOD~59=4~60=20191122-16:26:53.815~109=VSIN~150=2~151=0~10=112~
AFGLOCATE,11/22/19 11:29:24,SND:8=FIX.4.2~9=0120~35=R~52=20191122-16:29:24~34=6632~49=STERLING~56=VLCY~50=ANT15JT9009~109=VSIN~131=173399693-158-11~146=1~55=SAEX~38=500~10=117~
AFGLOCATE,11/22/19 11:31:35,SND:8=FIX.4.2~9=0115~35=R~52=20191122-16:31:35~34=6647~49=STERLING~56=VLCY~50=PANG012~109=VSIN~131=32244036-487-19~146=1~55=BHAT~38=100~10=039~
AFGLOCATE,11/22/19 11:33:52,SND:8=FIX.4.2~9=0120~35=R~52=20191122-16:33:52~34=6659~49=STERLING~56=VLCY~50=ANT15JT9009~109=VSIN~131=173400689-159-11~146=1~55=OSMT~38=500~10=129~
AFGLOCATE,11/22/19 11:36:37,SND:8=FIX.4.2~9=0115~35=R~52=20191122-16:36:37~34=6667~49=STERLING~56=VLCY~50=ZAIM020~109=VSIN~131=32244886-296-19~146=1~55=BTAL~38=500~10=077~
AFGLOCATE,11/22/19 11:36:41,SND:8=FIX.4.2~9=0149~35=D~52=20191122-16:36:41~34=6669~49=STERLING~56=VLCY~50=ZAIM020~109=VSIN~11=32244886-297-19~55=BTAL~54=1~38=500~60=20191122-16:36:41~21=1~40=1~59=4~10=112~
AFGLOCATE,11/22/19 11:36:41,RCV:8=FIX.4.2~9=236~35=8~34=6198~49=VLCY~50=ZAIM020~52=20191122-16:36:41.385~56=STERLING~6=0.005~11=32244886-297-19~14=500~17=2857339~20=0~31=0.005~32=500~37=2857339~38=500~39=2~40=1~44=0.005~54=1~55=BTAL~59=4~60=20191122-16:36:41.380~109=VSIN~150=2~151=0~10=231~
AFGLOCATE,11/22/19 11:38:33,SND:8=FIX.4.2~9=0116~35=R~52=20191122-16:38:33~34=6678~49=STERLING~56=VLCY~50=VSINDINGE~109=VSIN~131=173401697-11-11~146=1~55=XGN~38=400~10=229~
AFGLOCATE,11/22/19 11:38:49,SND:8=FIX.4.2~9=0118~35=R~52=20191122-16:38:49~34=6679~49=STERLING~56=VLCY~50=ANT15JT8013~109=VSIN~131=173401746-14-11~146=1~55=XGN~38=500~10=250~
AFGLOCATE,11/22/19 11:39:24,SND:8=FIX.4.2~9=0119~35=R~52=20191122-16:39:24~34=6683~49=STERLING~56=VLCY~50=ANT15JT8008~109=VSIN~131=173401834-61-11~146=1~55=SFET~38=500~10=057~
AFGLOCATE,11/22/19 11:39:28,SND:8=FIX.4.2~9=0118~35=R~52=20191122-16:39:28~34=6684~49=STERLING~56=VLCY~50=ANT15JT8007~109=VSIN~131=173401849-9-11~146=1~55=SFET~38=500~10=020~
AFGLOCATE,11/22/19 11:39:44,SND:8=FIX.4.2~9=0119~35=R~52=20191122-16:39:44~34=6687~49=STERLING~56=VLCY~50=ANT15JT8007~109=VSIN~131=173401908-10-11~146=1~55=SFET~38=500~10=058~
AFGLOCATE,11/22/19 11:39:51,SND:8=FIX.4.2~9=0153~35=D~52=20191122-16:39:51~34=6690~49=STERLING~56=VLCY~50=ANT15JT8007~109=VSIN~11=173401908-11-11~55=SFET~54=1~38=200~60=20191122-16:39:51~21=1~40=1~59=4~10=080~
AFGLOCATE,11/22/19 11:39:51,RCV:8=FIX.4.2~9=240~35=8~34=6215~49=VLCY~50=ANT15JT8007~52=20191122-16:39:51.398~56=STERLING~6=0.049~11=173401908-11-11~14=200~17=2857351~20=0~31=0.049~32=200~37=2857351~38=200~39=2~40=1~44=0.049~54=1~55=SFET~59=4~60=20191122-16:39:51.393~109=VSIN~150=2~151=0~10=209~
AFGLOCATE,11/22/19 11:39:55,SND:8=FIX.4.2~9=0119~35=R~52=20191122-16:39:55~34=6692~49=STERLING~56=VLCY~50=ANT15JT8007~109=VSIN~131=173401956-12-11~146=1~55=SFET~38=500~10=061~
AFGLOCATE,11/22/19 11:45:31,SND:8=FIX.4.2~9=0120~35=R~52=20191122-16:45:31~34=6720~49=STERLING~56=VLCY~50=ANT15JT9009~109=VSIN~131=173403124-163-11~146=1~55=PBTS~38=500~10=090~
AFGLOCATE,11/22/19 11:50:54,SND:8=FIX.4.2~9=0116~35=R~52=20191122-16:50:54~34=6749~49=STERLING~56=VLCY~50=ANTB2004~109=VSIN~131=173404409-263-11~146=1~55=TPL~38=100~10=088~
AFGLOCATE,11/22/19 11:50:55,SND:8=FIX.4.2~9=0150~35=D~52=20191122-16:50:55~34=6750~49=STERLING~56=VLCY~50=ANTB2004~109=VSIN~11=173404409-264-11~55=TPL~54=1~38=100~60=20191122-16:50:55~21=1~40=1~59=4~10=111~
AFGLOCATE,11/22/19 11:50:56,RCV:8=FIX.4.2~9=237~35=8~34=6264~49=VLCY~50=ANTB2004~52=20191122-16:50:56.243~56=STERLING~6=0.013~11=173404409-264-11~14=100~17=2857371~20=0~31=0.013~32=100~37=2857371~38=100~39=2~40=1~44=0.013~54=1~55=TPL~59=4~60=20191122-16:50:56.239~109=VSIN~150=2~151=0~10=221~
AFGLOCATE,11/22/19 11:52:40,SND:8=FIX.4.2~9=0118~35=R~52=20191122-16:52:40~34=6757~49=STERLING~56=VLCY~50=ANT15JT8008~109=VSIN~131=173404835-64-11~146=1~55=CUE~38=100~10=225~
AFGLOCATE,11/22/19 11:54:13,SND:8=FIX.4.2~9=0120~35=R~52=20191122-16:54:13~34=6763~49=STERLING~56=VLCY~50=ANT15JT9009~109=VSIN~131=173405096-169-11~146=1~55=SLRX~38=600~10=130~
AFGLOCATE,11/22/19 12:05:11,SND:8=FIX.4.2~9=0120~35=R~52=20191122-17:05:11~34=6819~49=STERLING~56=VLCY~50=ANT15JT9009~109=VSIN~131=173407615-171-11~146=1~55=PBTS~38=500~10=102~
AFGLOCATE,11/22/19 12:05:16,SND:8=FIX.4.2~9=0120~35=R~52=20191122-17:05:16~34=6820~49=STERLING~56=VLCY~50=ANT15JT9009~109=VSIN~131=173407632-172-11~146=1~55=PBTS~38=600~10=100~
AFGLOCATE,11/22/19 12:05:18,SND:8=FIX.4.2~9=0154~35=D~52=20191122-17:05:18~34=6822~49=STERLING~56=VLCY~50=ANT15JT9009~109=VSIN~11=173407632-173-11~55=PBTS~54=1~38=600~60=20191122-17:05:18~21=1~40=1~59=4~10=143~
AFGLOCATE,11/22/19 12:05:18,RCV:8=FIX.4.2~9=241~35=8~34=6325~49=VLCY~50=ANT15JT9009~52=20191122-17:05:18.371~56=STERLING~6=0.075~11=173407632-173-11~14=600~17=2857403~20=0~31=0.075~32=600~37=2857403~38=600~39=2~40=1~44=0.075~54=1~55=PBTS~59=4~60=20191122-17:05:18.364~109=VSIN~150=2~151=0~10=011~
AFGLOCATE,11/22/19 12:06:25,SND:8=FIX.4.2~9=0116~35=R~52=20191122-17:06:25~34=6829~49=STERLING~56=VLCY~50=HWJD5009~109=VSIN~131=32249917-311-19~146=1~55=SLGL~38=100~10=128~
AFGLOCATE,11/22/19 12:07:01,SND:8=FIX.4.2~9=0120~35=R~52=20191122-17:07:01~34=6834~49=STERLING~56=VLCY~50=ANT15JT9009~109=VSIN~131=173408009-174-11~146=1~55=ARCT~38=600~10=087~
AFGLOCATE,11/22/19 12:11:01,SND:8=FIX.4.2~9=0120~35=R~52=20191122-17:11:01~34=6852~49=STERLING~56=VLCY~50=ANT15JT9009~109=VSIN~131=173408882-177-11~146=1~55=ARCT~38=600~10=094~
AFGLOCATE,11/22/19 12:11:03,SND:8=FIX.4.2~9=0154~35=D~52=20191122-17:11:03~34=6853~49=STERLING~56=VLCY~50=ANT15JT9009~109=VSIN~11=173408882-178-11~55=ARCT~54=1~38=600~60=20191122-17:11:03~21=1~40=1~59=4~10=127~
AFGLOCATE,11/22/19 12:11:03,RCV:8=FIX.4.2~9=241~35=8~34=6349~49=VLCY~50=ANT15JT9009~52=20191122-17:11:03.484~56=STERLING~6=0.017~11=173408882-178-11~14=600~17=2857423~20=0~31=0.017~32=600~37=2857423~38=600~39=2~40=1~44=0.017~54=1~55=ARCT~59=4~60=20191122-17:11:03.479~109=VSIN~150=2~151=0~10=001~
AFGLOCATE,11/22/19 12:14:22,SND:8=FIX.4.2~9=0120~35=R~52=20191122-17:14:22~34=6874~49=STERLING~56=VLCY~50=ANT15JT9008~109=VSIN~131=173409593-362-11~146=1~55=PBTS~38=100~10=109~
AFGLOCATE,11/22/19 12:26:30,SND:8=FIX.4.2~9=0120~35=R~52=20191122-17:26:30~34=6947~49=STERLING~56=VLCY~50=ANT15JT8002~109=VSIN~131=173411471-134-11~146=1~55=SLGL~38=200~10=084~
AFGLOCATE,11/22/19 12:43:19,SND:8=FIX.4.2~9=0113~35=R~52=20191122-17:43:19~34=7002~49=STERLING~56=VLCY~50=HT001~109=VSIN~131=32254297-172-19~146=1~55=SLGL~38=400~10=168~
AFGLOCATE,11/22/19 12:47:41,SND:8=FIX.4.2~9=0120~35=R~52=20191122-17:47:41~34=7028~49=STERLING~56=VLCY~50=ANT15JT9009~109=VSIN~131=173415645-224-11~146=1~55=KLDO~38=200~10=087~
AFGLOCATE,11/22/19 12:47:44,SND:8=FIX.4.2~9=0154~35=D~52=20191122-17:47:44~34=7029~49=STERLING~56=VLCY~50=ANT15JT9009~109=VSIN~11=173415645-225-11~55=KLDO~54=1~38=200~60=20191122-17:47:44~21=1~40=1~59=4~10=135~
AFGLOCATE,11/22/19 12:47:44,RCV:8=FIX.4.2~9=241~35=8~34=6496~49=VLCY~50=ANT15JT9009~52=20191122-17:47:44.485~56=STERLING~6=0.028~11=173415645-225-11~14=200~17=2857547~20=0~31=0.028~32=200~37=2857547~38=200~39=2~40=1~44=0.028~54=1~55=KLDO~59=4~60=20191122-17:47:44.481~109=VSIN~150=2~151=0~10=022~
AFGLOCATE,11/22/19 12:49:04,SND:8=FIX.4.2~9=0120~35=R~52=20191122-17:49:04~34=7038~49=STERLING~56=VLCY~50=ANT15JT8006~109=VSIN~131=173415852-223-11~146=1~55=SLGL~38=100~10=091~
AFGLOCATE,11/22/19 12:51:36,SND:8=FIX.4.2~9=0113~35=R~52=20191122-17:51:36~34=7045~49=STERLING~56=VLCY~50=HT001~109=VSIN~131=32255176-194-19~146=1~55=POAI~38=400~10=165~
AFGLOCATE,11/22/19 12:54:58,SND:8=FIX.4.2~9=0120~35=R~52=20191122-17:54:58~34=7056~49=STERLING~56=VLCY~50=ANT15JT8006~109=VSIN~131=173416792-232-11~146=1~55=SLGL~38=800~10=107~
AFGLOCATE,11/22/19 12:55:02,SND:8=FIX.4.2~9=0154~35=D~52=20191122-17:55:02~34=7057~49=STERLING~56=VLCY~50=ANT15JT8006~109=VSIN~11=173416792-233-11~55=SLGL~54=1~38=800~60=20191122-17:55:02~21=1~40=1~59=4~10=135~
AFGLOCATE,11/22/19 12:55:02,RCV:8=FIX.4.2~9=241~35=8~34=6520~49=VLCY~50=ANT15JT8006~52=20191122-17:55:02.395~56=STERLING~6=0.045~11=173416792-233-11~14=800~17=2857561~20=0~31=0.045~32=800~37=2857561~38=800~39=2~40=1~44=0.045~54=1~55=SLGL~59=4~60=20191122-17:55:02.390~109=VSIN~150=2~151=0~10=009~
AFGLOCATE,11/22/19 12:58:51,SND:8=FIX.4.2~9=0119~35=R~52=20191122-17:58:51~34=7067~49=STERLING~56=VLCY~50=ANT15JT9009~109=VSIN~131=173417304-260-11~146=1~55=MTC~38=500~10=028~
AFGLOCATE,11/22/19 12:59:06,SND:8=FIX.4.2~9=0115~35=R~52=20191122-17:59:06~34=7069~49=STERLING~56=VLCY~50=PANG012~109=VSIN~131=32255948-881-19~146=1~55=CBMG~38=100~10=053~
AFGLOCATE,11/22/19 13:06:35,SND:8=FIX.4.2~9=0116~35=R~52=20191122-18:06:35~34=7104~49=STERLING~56=VLCY~50=HWJD5009~109=VSIN~131=32256639-342-19~146=1~55=EPIX~38=100~10=124~
AFGLOCATE,11/22/19 13:06:53,SND:8=FIX.4.2~9=0120~35=R~52=20191122-18:06:53~34=7106~49=STERLING~56=VLCY~50=ANT15JT8005~109=VSIN~131=173418290-225-11~146=1~55=SLGL~38=100~10=085~
AFGLOCATE,11/22/19 13:15:35,SND:8=FIX.4.2~9=0116~35=R~52=20191122-18:15:35~34=7139~49=STERLING~56=VLCY~50=ZAIM020~109=VSIN~131=32257416-648-19~146=1~55=CNYA~38=1000~10=116~
AFGLOCATE,11/22/19 13:15:48,SND:8=FIX.4.2~9=0116~35=R~52=20191122-18:15:48~34=7140~49=STERLING~56=VLCY~50=ZAIM020~109=VSIN~131=32257429-649-19~146=1~55=CNYA~38=1000~10=117~
AFGLOCATE,11/22/19 13:15:51,SND:8=FIX.4.2~9=0150~35=D~52=20191122-18:15:51~34=7141~49=STERLING~56=VLCY~50=ZAIM020~109=VSIN~11=32257429-650-19~55=CNYA~54=1~38=1000~60=20191122-18:15:51~21=1~40=1~59=4~10=132~
AFGLOCATE,11/22/19 13:15:51,RCV:8=FIX.4.2~9=239~35=8~34=6591~49=VLCY~50=ZAIM020~52=20191122-18:15:51.396~56=STERLING~6=0.012~11=32257429-650-19~14=1000~17=2857610~20=0~31=0.012~32=1000~37=2857610~38=1000~39=2~40=1~44=0.012~54=1~55=CNYA~59=4~60=20191122-18:15:51.391~109=VSIN~150=2~151=0~10=087~
AFGLOCATE,11/22/19 13:22:26,SND:8=FIX.4.2~9=0116~35=R~52=20191122-18:22:26~34=7185~49=STERLING~56=VLCY~50=PANG012~109=VSIN~131=32258129-1024-19~146=1~55=EPIX~38=100~10=107~
AFGLOCATE,11/22/19 13:28:20,SND:8=FIX.4.2~9=0114~35=R~52=20191122-18:28:20~34=7203~49=STERLING~56=VLCY~50=ZAIM020~109=VSIN~131=32258692-697-19~146=1~55=TBB~38=100~10=240~
AFGLOCATE,11/22/19 13:31:49,SND:8=FIX.4.2~9=0115~35=R~52=20191122-18:31:49~34=7219~49=STERLING~56=VLCY~50=ZAIM021~109=VSIN~131=32259061-822-19~146=1~55=PTBD~38=200~10=062~
AFGLOCATE,11/22/19 13:31:58,SND:8=FIX.4.2~9=0120~35=R~52=20191122-18:31:58~34=7221~49=STERLING~56=VLCY~50=ANT15JT8004~109=VSIN~131=173422385-425-11~146=1~55=HFFG~38=100~10=064~
AFGLOCATE,11/22/19 13:33:57,SND:8=FIX.4.2~9=0120~35=R~52=20191122-18:33:57~34=7227~49=STERLING~56=VLCY~50=ANT15JT8004~109=VSIN~131=173422702-435-11~146=1~55=NAOV~38=100~10=090~
AFGLOCATE,11/22/19 13:35:05,SND:8=FIX.4.2~9=0115~35=R~52=20191122-18:35:05~34=7234~49=STERLING~56=VLCY~50=ZAIM021~109=VSIN~131=32259576-829-19~146=1~55=HTAB~38=100~10=061~
AFGLOCATE,11/22/19 13:35:56,SND:8=FIX.4.2~9=0120~35=R~52=20191122-18:35:56~34=7238~49=STERLING~56=VLCY~50=ANT15JT9009~109=VSIN~131=173423069-323-11~146=1~55=KLDO~38=500~10=096~
AFGLOCATE,11/22/19 13:38:28,SND:8=FIX.4.2~9=0154~35=D~52=20191122-18:38:28~34=7245~49=STERLING~56=VLCY~50=ANT15JT8004~109=VSIN~11=173422385-460-11~55=HFFG~54=1~38=100~60=20191122-18:38:28~21=1~40=1~59=4~10=119~
AFGLOCATE,11/22/19 13:38:28,RCV:8=FIX.4.2~9=241~35=8~34=6677~49=VLCY~50=ANT15JT8004~52=20191122-18:38:28.978~56=STERLING~6=0.032~11=173422385-460-11~14=100~17=2857641~20=0~31=0.032~32=100~37=2857641~38=100~39=2~40=1~44=0.032~54=1~55=HFFG~59=4~60=20191122-18:38:28.975~109=VSIN~150=2~151=0~10=251~
AFGLOCATE,11/22/19 13:42:12,SND:8=FIX.4.2~9=0119~35=R~52=20191122-18:42:12~34=7254~49=STERLING~56=VLCY~50=ANT15JT8012~109=VSIN~131=173424218-94-11~146=1~55=UROV~38=500~10=073~
AFGLOCATE,11/22/19 13:42:19,SND:8=FIX.4.2~9=0153~35=D~52=20191122-18:42:19~34=7255~49=STERLING~56=VLCY~50=ANT15JT8012~109=VSIN~11=173424218-95-11~55=UROV~54=1~38=500~60=20191122-18:42:19~21=1~40=1~59=4~10=114~
AFGLOCATE,11/22/19 13:42:20,RCV:8=FIX.4.2~9=240~35=8~34=6686~49=VLCY~50=ANT15JT8012~52=20191122-18:42:20.113~56=STERLING~6=0.019~11=173424218-95-11~14=500~17=2857644~20=0~31=0.019~32=500~37=2857644~38=500~39=2~40=1~44=0.019~54=1~55=UROV~59=4~60=20191122-18:42:20.109~109=VSIN~150=2~151=0~10=228~
AFGLOCATE,11/22/19 13:42:21,SND:8=FIX.4.2~9=0120~35=R~52=20191122-18:42:21~34=7256~49=STERLING~56=VLCY~50=ANT15JT9009~109=VSIN~131=173424252-337-11~146=1~55=DRAD~38=500~10=071~
AFGLOCATE,11/22/19 13:44:34,SND:8=FIX.4.2~9=0116~35=R~52=20191122-18:44:34~34=7265~49=STERLING~56=VLCY~50=PANG012~109=VSIN~131=32260789-1129-19~146=1~55=AXGT~38=100~10=118~
AFGLOCATE,11/22/19 13:52:23,SND:8=FIX.4.2~9=0120~35=R~52=20191122-18:52:23~34=7296~49=STERLING~56=VLCY~50=ANT15JT8008~109=VSIN~131=173425774-100-11~146=1~55=INMB~38=500~10=085~
AFGLOCATE,11/22/19 13:52:52,SND:8=FIX.4.2~9=0116~35=R~52=20191122-18:52:52~34=7303~49=STERLING~56=VLCY~50=PANG012~109=VSIN~131=32261777-1145-19~146=1~55=NCNA~38=100~10=086~
AFGLOCATE,11/22/19 14:05:48,SND:8=FIX.4.2~9=0117~35=R~52=20191122-19:05:48~34=7370~49=STERLING~56=VLCY~50=VSINKRIEG~109=VSIN~131=173427626-76-11~146=1~55=QBIO~38=800~10=055~
AFGLOCATE,11/22/19 14:05:50,SND:8=FIX.4.2~9=0151~35=D~52=20191122-19:05:50~34=7371~49=STERLING~56=VLCY~50=VSINKRIEG~109=VSIN~11=173427626-77-11~55=QBIO~54=1~38=800~60=20191122-19:05:50~21=1~40=1~59=4~10=077~
AFGLOCATE,11/22/19 14:05:50,RCV:8=FIX.4.2~9=238~35=8~34=6781~49=VLCY~50=VSINKRIEG~52=20191122-19:05:50.534~56=STERLING~6=0.018~11=173427626-77-11~14=800~17=2857697~20=0~31=0.018~32=800~37=2857697~38=800~39=2~40=1~44=0.018~54=1~55=QBIO~59=4~60=20191122-19:05:50.529~109=VSIN~150=2~151=0~10=245~
AFGLOCATE,11/22/19 14:07:21,SND:8=FIX.4.2~9=0117~35=R~52=20191122-19:07:21~34=7378~49=STERLING~56=VLCY~50=VSINKRIEG~109=VSIN~131=173427862-78-11~146=1~55=QBIO~38=200~10=054~
AFGLOCATE,11/22/19 14:07:23,SND:8=FIX.4.2~9=0151~35=D~52=20191122-19:07:23~34=7380~49=STERLING~56=VLCY~50=VSINKRIEG~109=VSIN~11=173427862-79-11~55=QBIO~54=1~38=200~60=20191122-19:07:23~21=1~40=1~59=4~10=079~
AFGLOCATE,11/22/19 14:07:23,RCV:8=FIX.4.2~9=238~35=8~34=6788~49=VLCY~50=VSINKRIEG~52=20191122-19:07:23.480~56=STERLING~6=0.018~11=173427862-79-11~14=200~17=2857699~20=0~31=0.018~32=200~37=2857699~38=200~39=2~40=1~44=0.018~54=1~55=QBIO~59=4~60=20191122-19:07:23.476~109=VSIN~150=2~151=0~10=247~
AFGLOCATE,11/22/19 14:08:10,SND:8=FIX.4.2~9=0114~35=R~52=20191122-19:08:10~34=7385~49=STERLING~56=VLCY~50=PANG004~109=VSIN~131=32263525-266-19~146=1~55=NBH~38=100~10=223~
AFGLOCATE,11/22/19 14:10:25,SND:8=FIX.4.2~9=0117~35=R~52=20191122-19:10:25~34=7396~49=STERLING~56=VLCY~50=VSINKRIEG~109=VSIN~131=173428572-82-11~146=1~55=QBIO~38=400~10=048~
AFGLOCATE,11/22/19 14:10:27,SND:8=FIX.4.2~9=0151~35=D~52=20191122-19:10:27~34=7397~49=STERLING~56=VLCY~50=VSINKRIEG~109=VSIN~11=173428572-83-11~55=QBIO~54=1~38=400~60=20191122-19:10:27~21=1~40=1~59=4~10=079~
AFGLOCATE,11/22/19 14:10:27,RCV:8=FIX.4.2~9=238~35=8~34=6803~49=VLCY~50=VSINKRIEG~52=20191122-19:10:27.569~56=STERLING~6=0.018~11=173428572-83-11~14=400~17=2857703~20=0~31=0.018~32=400~37=2857703~38=400~39=2~40=1~44=0.018~54=1~55=QBIO~59=4~60=20191122-19:10:27.564~109=VSIN~150=2~151=0~10=209~
AFGLOCATE,11/22/19 14:12:39,SND:8=FIX.4.2~9=0115~35=R~52=20191122-19:12:39~34=7404~49=STERLING~56=VLCY~50=JSG0000~109=VSIN~131=173428900-57-11~146=1~55=EYEG~38=100~10=022~
AFGLOCATE,11/22/19 14:14:21,SND:8=FIX.4.2~9=0120~35=R~52=20191122-19:14:21~34=7412~49=STERLING~56=VLCY~50=ANT15JT8008~109=VSIN~131=173429169-101-11~146=1~55=MITO~38=100~10=090~
AFGLOCATE,11/22/19 14:16:40,SND:8=FIX.4.2~9=0115~35=R~52=20191122-19:16:40~34=7421~49=STERLING~56=VLCY~50=ZAIM017~109=VSIN~131=32264673-870-19~146=1~55=GOAU~38=100~10=066~
AFGLOCATE,11/22/19 14:30:44,SND:8=FIX.4.2~9=0116~35=R~52=20191122-19:30:44~34=7496~49=STERLING~56=VLCY~50=ANTB2003~109=VSIN~131=173432058-368-11~146=1~55=TPL~38=100~10=094~
AFGLOCATE,11/22/19 14:30:46,SND:8=FIX.4.2~9=0150~35=D~52=20191122-19:30:46~34=7497~49=STERLING~56=VLCY~50=ANTB2003~109=VSIN~11=173432058-369-11~55=TPL~54=1~38=100~60=20191122-19:30:46~21=1~40=1~59=4~10=128~
AFGLOCATE,11/22/19 14:30:46,RCV:8=FIX.4.2~9=237~35=8~34=6885~49=VLCY~50=ANTB2003~52=20191122-19:30:46.781~56=STERLING~6=0.013~11=173432058-369-11~14=100~17=2857730~20=0~31=0.013~32=100~37=2857730~38=100~39=2~40=1~44=0.013~54=1~55=TPL~59=4~60=20191122-19:30:46.777~109=VSIN~150=2~151=0~10=248~
AFGLOCATE,11/22/19 14:51:30,SND:8=FIX.4.2~9=0120~35=R~52=20191122-19:51:30~34=7573~49=STERLING~56=VLCY~50=ANT15JT8008~109=VSIN~131=173435124-137-11~146=1~55=UROV~38=100~10=115~
AFGLOCATE,11/22/19 14:52:58,SND:8=FIX.4.2~9=0116~35=R~52=20191122-19:52:58~34=7581~49=STERLING~56=VLCY~50=PANG012~109=VSIN~131=32268766-1339-19~146=1~55=IRIX~38=100~10=139~
AFGLOCATE,11/22/19 14:53:03,SND:8=FIX.4.2~9=0116~35=R~52=20191122-19:53:03~34=7582~49=STERLING~56=VLCY~50=PANG012~109=VSIN~131=32268774-1340-19~146=1~55=AXGT~38=100~10=114~
AFGLOCATE,11/22/19 14:55:16,SND:8=FIX.4.2~9=0115~35=R~52=20191122-19:55:16~34=7588~49=STERLING~56=VLCY~50=JTTOTEST~109=VSIN~131=32269038-1-19~146=1~55=AXGT~38=2100~10=218~
AFGLOCATE,11/22/19 15:13:49,SND:8=FIX.4.2~9=0116~35=R~52=20191122-20:13:49~34=7656~49=STERLING~56=VLCY~50=PANG012~109=VSIN~131=32270797-1395-19~146=1~55=AMOT~38=100~10=119~
AFGLOCATE,11/22/19 15:13:59,SND:8=FIX.4.2~9=0116~35=R~52=20191122-20:13:59~34=7658~49=STERLING~56=VLCY~50=PANG012~109=VSIN~131=32270812-1396-19~146=1~55=XOMA~38=100~10=115~
AFGLOCATE,11/22/19 15:25:19,SND:8=FIX.4.2~9=0116~35=R~52=20191122-20:25:19~34=7698~49=STERLING~56=VLCY~50=VSINDINGE~109=VSIN~131=173439169-53-11~146=1~55=XGN~38=500~10=239~
AFGLOCATE,11/22/19 15:34:40,SND:8=FIX.4.2~9=0121~35=R~52=20191122-20:34:40~34=7722~49=STERLING~56=VLCY~50=ANT15JT8004~109=VSIN~131=173440000-1033-11~146=1~55=HOOK~38=100~10=108~
AFGLOCATE,11/22/19 15:37:28,SND:8=FIX.4.2~9=0119~35=R~52=20191122-20:37:28~34=7734~49=STERLING~56=VLCY~50=ANT15JT8007~109=VSIN~131=173440288-18-11~146=1~55=DMTK~38=500~10=057~
AFGLOCATE,11/22/19 15:45:42,SND:8=FIX.4.2~9=0120~35=R~52=20191122-20:45:42~34=7759~49=STERLING~56=VLCY~50=ANT15JT8002~109=VSIN~131=173440999-186-11~146=1~55=STSA~38=100~10=116~
AFGLOCATE,11/22/19 15:49:26,SND:8=FIX.4.2~9=0116~35=R~52=20191122-20:49:26~34=7772~49=STERLING~56=VLCY~50=JTTOTEST~109=VSIN~131=32272315-3-19~146=1~55=OSMT~38=15000~10=014~
AFGLOCATE,11/22/19 15:51:57,SND:8=FIX.4.2~9=0120~35=R~52=20191122-20:51:57~34=7780~49=STERLING~56=VLCY~50=ANT15JT8001~109=VSIN~131=173441434-197-11~146=1~55=BCYC~38=100~10=073~
AFGLOCATE,11/22/19 15:54:02,SND:8=FIX.4.2~9=0116~35=R~52=20191122-20:54:02~34=7787~49=STERLING~56=VLCY~50=NVGOTEST~109=VSIN~131=32272366-7-19~146=1~55=OSMT~38=30000~10=010~
AFGLOCATE,11/22/19 15:54:28,SND:8=FIX.4.2~9=0116~35=R~52=20191122-20:54:28~34=7791~49=STERLING~56=VLCY~50=NVGOTEST~109=VSIN~131=32272383-9-19~146=1~55=AXGT~38=14000~10=001~
AFGLOCATE,11/22/19 15:54:55,SND:8=FIX.4.2~9=0115~35=R~52=20191122-20:54:55~34=7794~49=STERLING~56=VLCY~50=NVGOTEST~109=VSIN~131=32272395-11-19~146=1~55=NCNA~38=500~10=187~
AFGLOCATE,11/22/19 16:44:23,SND:8=FIX.4.2~9=0116~35=R~52=20191122-21:44:23~34=7900~49=STERLING~56=VLCY~50=SMRT030~109=VSIN~131=173442206-394-11~146=1~55=UBER~38=500~10=123~
AFGLOCATE,11/22/19 16:44:28,SND:8=FIX.4.2~9=0150~35=D~52=20191122-21:44:28~34=7901~49=STERLING~56=VLCY~50=SMRT030~109=VSIN~11=173442206-395-11~55=UBER~54=1~38=500~60=20191122-21:44:28~21=1~40=1~59=4~10=158~
AFGLOCATE,11/22/19 16:44:28,RCV:8=FIX.4.2~9=237~35=8~34=7244~49=VLCY~50=SMRT030~52=20191122-21:44:28.590~56=STERLING~6=0.009~11=173442206-395-11~14=500~17=2857917~20=0~31=0.009~32=500~37=2857917~38=500~39=2~40=1~44=0.009~54=1~55=UBER~59=4~60=20191122-21:44:28.585~109=VSIN~150=2~151=0~10=054~
AFGLOCATE,11/22/19 17:06:08,SND:8=FIX.4.2~9=0118~35=R~52=20191122-22:06:08~34=7955~49=STERLING~56=VLCY~50=PANG012~109=VSIN~131=32272580-1518-19~146=1~55=OSMT~38=10000~10=225~
AFGLOCATE,11/22/19 17:06:31,SND:8=FIX.4.2~9=0152~35=D~52=20191122-22:06:31~34=7957~49=STERLING~56=VLCY~50=PANG012~109=VSIN~11=32272580-1519-19~55=OSMT~54=1~38=10000~60=20191122-22:06:31~21=1~40=1~59=4~10=245~
AFGLOCATE,11/22/19 17:06:32,RCV:8=FIX.4.2~9=243~35=8~34=7296~49=VLCY~50=PANG012~52=20191122-22:06:32.206~56=STERLING~6=0.049~11=32272580-1519-19~14=10000~17=2857922~20=0~31=0.049~32=10000~37=2857922~38=10000~39=2~40=1~44=0.049~54=1~55=OSMT~59=4~60=20191122-22:06:32.201~109=VSIN~150=2~151=0~10=045~
AFGLOCATE,11/22/19 17:06:50,SND:8=FIX.4.2~9=0117~35=R~52=20191122-22:06:50~34=7958~49=STERLING~56=VLCY~50=PANG007~109=VSIN~131=32272581-585-19~146=1~55=OSMT~38=10000~10=184~
AFGLOCATE,11/22/19 17:06:52,SND:8=FIX.4.2~9=0151~35=D~52=20191122-22:06:52~34=7960~49=STERLING~56=VLCY~50=PANG007~109=VSIN~11=32272581-586-19~55=OSMT~54=1~38=10000~60=20191122-22:06:52~21=1~40=1~59=4~10=204~
AFGLOCATE,11/22/19 17:06:53,RCV:8=FIX.4.2~9=242~35=8~34=7298~49=VLCY~50=PANG007~52=20191122-22:06:53.062~56=STERLING~6=0.049~11=32272581-586-19~14=10000~17=2857923~20=0~31=0.049~32=10000~37=2857923~38=10000~39=2~40=1~44=0.049~54=1~55=OSMT~59=4~60=20191122-22:06:53.058~109=VSIN~150=2~151=0~10=024~
AFGLOCATE,11/22/19 17:08:37,SND:8=FIX.4.2~9=0117~35=R~52=20191122-22:08:37~34=7966~49=STERLING~56=VLCY~50=PANG012~109=VSIN~131=32272582-1520-19~146=1~55=BTAI~38=3000~10=144~
AFGLOCATE,11/22/19 17:08:39,SND:8=FIX.4.2~9=0151~35=D~52=20191122-22:08:39~34=7967~49=STERLING~56=VLCY~50=PANG012~109=VSIN~11=32272582-1521-19~55=BTAI~54=1~38=3000~60=20191122-22:08:39~21=1~40=1~59=4~10=179~
AFGLOCATE,11/22/19 17:08:40,RCV:8=FIX.4.2~9=240~35=8~34=7304~49=VLCY~50=PANG012~52=20191122-22:08:40.019~56=STERLING~6=0.021~11=32272582-1521-19~14=3000~17=2857924~20=0~31=0.021~32=3000~37=2857924~38=3000~39=2~40=1~44=0.021~54=1~55=BTAI~59=4~60=20191122-22:08:40.013~109=VSIN~150=2~151=0~10=089~
AFGLOCATE,11/22/19 17:08:56,SND:8=FIX.4.2~9=0116~35=R~52=20191122-22:08:56~34=7969~49=STERLING~56=VLCY~50=PANG007~109=VSIN~131=32272583-587-19~146=1~55=BTAI~38=1000~10=114~
AFGLOCATE,11/22/19 17:08:58,SND:8=FIX.4.2~9=0150~35=D~52=20191122-22:08:58~34=7970~49=STERLING~56=VLCY~50=PANG007~109=VSIN~11=32272583-588-19~55=BTAI~54=1~38=1000~60=20191122-22:08:58~21=1~40=1~59=4~10=141~
AFGLOCATE,11/22/19 17:08:58,RCV:8=FIX.4.2~9=239~35=8~34=7306~49=VLCY~50=PANG007~52=20191122-22:08:58.637~56=STERLING~6=0.021~11=32272583-588-19~14=1000~17=2857925~20=0~31=0.021~32=1000~37=2857925~38=1000~39=2~40=1~44=0.021~54=1~55=BTAI~59=4~60=20191122-22:08:58.630~109=VSIN~150=2~151=0~10=093~
AFGLOCATE,11/22/19 17:09:34,SND:8=FIX.4.2~9=0118~35=R~52=20191122-22:09:34~34=7972~49=STERLING~56=VLCY~50=PANG012~109=VSIN~131=32272584-1522-19~146=1~55=AXGT~38=10500~10=215~
AFGLOCATE,11/22/19 17:09:36,SND:8=FIX.4.2~9=0152~35=D~52=20191122-22:09:36~34=7973~49=STERLING~56=VLCY~50=PANG012~109=VSIN~11=32272584-1523-19~55=AXGT~54=1~38=10500~60=20191122-22:09:36~21=1~40=1~59=4~10=248~
AFGLOCATE,11/22/19 17:09:37,RCV:8=FIX.4.2~9=240~35=8~34=7309~49=VLCY~50=PANG012~52=20191122-22:09:37.129~56=STERLING~6=0.04~11=32272584-1523-19~14=10500~17=2857926~20=0~31=0.04~32=10500~37=2857926~38=10500~39=2~40=1~44=0.04~54=1~55=AXGT~59=4~60=20191122-22:09:37.124~109=VSIN~150=2~151=0~10=153~
AFGLOCATE,11/22/19 17:09:56,SND:8=FIX.4.2~9=0116~35=R~52=20191122-22:09:56~34=7975~49=STERLING~56=VLCY~50=PANG007~109=VSIN~131=32272585-589-19~146=1~55=AXGT~38=4600~10=145~
AFGLOCATE,11/22/19 17:09:58,SND:8=FIX.4.2~9=0150~35=D~52=20191122-22:09:58~34=7976~49=STERLING~56=VLCY~50=PANG007~109=VSIN~11=32272585-590-19~55=AXGT~54=1~38=4600~60=20191122-22:09:58~21=1~40=1~59=4~10=173~
AFGLOCATE,11/22/19 17:09:58,RCV:8=FIX.4.2~9=236~35=8~34=7311~49=VLCY~50=PANG007~52=20191122-22:09:58.683~56=STERLING~6=0.04~11=32272585-590-19~14=4600~17=2857927~20=0~31=0.04~32=4600~37=2857927~38=4600~39=2~40=1~44=0.04~54=1~55=AXGT~59=4~60=20191122-22:09:58.678~109=VSIN~150=2~151=0~10=006~
AFGLOCATE,11/22/19 17:11:20,SND:8=FIX.4.2~9=0115~35=R~52=20191122-22:11:20~34=7980~49=STERLING~56=VLCY~50=PANG013~109=VSIN~131=32272586-537-19~146=1~55=XOMA~38=800~10=066~
AFGLOCATE,11/22/19 17:11:23,SND:8=FIX.4.2~9=0149~35=D~52=20191122-22:11:23~34=7982~49=STERLING~56=VLCY~50=PANG013~109=VSIN~11=32272586-538-19~55=XOMA~54=1~38=800~60=20191122-22:11:23~21=1~40=1~59=4~10=099~
AFGLOCATE,11/22/19 17:11:23,RCV:8=FIX.4.2~9=236~35=8~34=7316~49=VLCY~50=PANG013~52=20191122-22:11:23.401~56=STERLING~6=0.052~11=32272586-538-19~14=800~17=2857928~20=0~31=0.052~32=800~37=2857928~38=800~39=2~40=1~44=0.052~54=1~55=XOMA~59=4~60=20191122-22:11:23.395~109=VSIN~150=2~151=0~10=227~
AFGLOCATE,11/22/19 17:11:53,SND:8=FIX.4.2~9=0116~35=R~52=20191122-22:11:53~34=7984~49=STERLING~56=VLCY~50=PANG012~109=VSIN~131=32272587-1524-19~146=1~55=NCNA~38=500~10=098~
AFGLOCATE,11/22/19 17:11:55,SND:8=FIX.4.2~9=0150~35=D~52=20191122-22:11:55~34=7985~49=STERLING~56=VLCY~50=PANG012~109=VSIN~11=32272587-1525-19~55=NCNA~54=1~38=500~60=20191122-22:11:55~21=1~40=1~59=4~10=125~
AFGLOCATE,11/22/19 17:11:55,RCV:8=FIX.4.2~9=237~35=8~34=7318~49=VLCY~50=PANG012~52=20191122-22:11:55.840~56=STERLING~6=0.021~11=32272587-1525-19~14=500~17=2857929~20=0~31=0.021~32=500~37=2857929~38=500~39=2~40=1~44=0.021~54=1~55=NCNA~59=4~60=20191122-22:11:55.834~109=VSIN~150=2~151=0~10=250~
AFGLOCATE,11/22/19 17:12:24,SND:8=FIX.4.2~9=0115~35=R~52=20191122-22:12:24~34=7987~49=STERLING~56=VLCY~50=PANG007~109=VSIN~131=32272588-591-19~146=1~55=PLIN~38=400~10=077~
